S01100006772626C5F315F31682E73726563E4
S11300000C9444020C9456020C9456020C94D30E95
S11300100C94FE380C9456020C9456020C9456021E
S11300200C9456020C9456020C9456020C94A92D6E
S11300300C9456020C9456020C9456020C945602DC
S11300400C94A12F0C9456020C94CF280C94912854
S11300500C9456020C9456020C9456020C945602BC
S11300600C9456020C9456020D040D040D040D0458
S1130070F003790D790D790D790D790DE503790D7D
S1130080790D790D790D790D790D36043604360420
S113009055045504790D790D790D790D790D790D86
S11300A0E503790DE503790D790D790D790D790D58
S11300B0790D790D0D04790D7F04790D790D5B04AB
S11300C0790D790D790D790D790D5B04790D790D23
S11300D0790DF003730473047304730473047304D9
S11300E0790D7904790D790D790D790D790D790DE5
S11300F0790D790D790D790D790D790D790D790DCC
S1130100790D790D790D790D1304790D790D790D2A
S1130110790D790D790D790D790D790D3C043C0437
S1130120E5034F044F04A804A804A804B704B704C3
S1130130B704930D930DCE04CE04930D930D930D3C
S1130140930D930D930D930D930D930D930D930DAB
S1130150930D930D930D930D930D930D930D930D9B
S1130160930DA8040305970D970D0D051A05270592
S11301703405970D3805970D4605970D50055A051A
S11301806405970D970D970D740581058E057223EF
S113019077237C23812386238B23902395239A23FF
S11301A09F23A4230C29102918296E296E296E294E
S11301B06E296E296E296E296E296E292129252919
S11301C029292D293129352939293D296E29412902
S11301D0452949294D29512955296E295929C12AC9
S11301E0C72ACA2ACF2AD42AE22AF02AA42BA42B6B
S11301F0A42B012B042B0D2B162BA42BA42BA42BEB
S1130200A42BA42BA42B262B362B462B542B572B59
S1130210602B692B702BA42BA42B792B842B8F2B75
S1130220084AD73B3BCE016E84BCBFFDC12F3D6C59
S113023074319ABD56833DDA3D00C77F11BED9E4BF
S1130240BB4C3E916BAAAABE000000803F05A84C9F
S1130250CDB2D44EB93836A9020C50B9918688086B
S11302603CA6AAAA2ABE000000803F007C413A00B6
S11302707C4F763A007C57434F3A007C506E3A00EC
S11302807C46533A007C42663A007C57506F733A7E
S1130290007C4D506F733A00536C65657000446F79
S11302A06F723A00436865636B00416C61726D0064
S11302B0486F6D65004A6F6700486F6C643A00527E
S11302C0756E0049646C65005B4F50543A005B5690
S11302D045523A312E31682E32303139303833308C
S11302E03A00244E00204D002047002053002046B1
S11302F00020540033382E005B47433A47005B54D8
S11303004C4F3A005B4739323A0033300032380000
S11303105B47005B5052423A005B484C503A2424FD
S113032020242320244720244920244E2024783DBF
S113033076616C20244E783D6C696E6520244A3DBC
S11303406C696E652024534C50202443202458208B
S11303502448207E2021203F206374726C2D785D18
S11303600D0A000D0A4772626C20312E3168205B41
S113037027242720666F722068656C705D0D0A0063
S1130380536C656570696E6700526573746F72694A
S11303906E67207370696E646C6500526573746F68
S11303A072696E672064656661756C74730050676A
S11303B06D20456E6400436865636B204C696D690C
S11303C0747300436865636B20446F6F7200446903
S11303D07361626C656400456E61626C65640043C0
S11303E0617574696F6E3A20556E6C6F636B6564EA
S11303F000272448277C2724582720746F20756EF3
S11304006C6F636B00526573657420746F20636F47
S11304106E74696E7565005B4D53473A00414C41FB
S1130420524D3A000D0A006572726F723A006F6B9A
S11304300D0A0000007A4300007A4300007A43006A
S113044000FA430000FA430000FA4300A00C4700FE
S1130450A00C4700A00C47000048C3000048C3009C
S11304600048C30A000019010AD7233C6F12033B5A
S113047000007A440000000000000000C8410000B1
S1130480FA43FA000000803F11241FBECFEFD8E0EA
S1130490DEBFCDBF27E0A0E0B1E001C01D92A236CF
S11304A0B207E1F70E9441110C9417410C9400002B
S11304B0439B02C080E4089580E008954398089522
S11304C03B9A0E945E0208959091F505911107C030
S11304D086FF02C0439A01C043981092FF05089515
S11304E0CF939091F405923031F0C82F0E94D4221A
S11304F08C2F0E946402CF910895F999FECF92BD8A
S113050081BD81E08FBB80B50895F894F999FECF41
S113051092BD81BD81E08FBB80B58627962F98233D
S113052059F06F3F29F060BD84E08FBBF99A0AC08F
S113053084E18FBBF99A06C0882321F060BD84E270
S11305408FBBF99A789408958F929F92AF92BF923D
S1130550CF92DF92EF92FF920F931F93CF93DF938B
S11305607C018B016A014115510509F15A01C0E072
S1130570D1E001C0C401C11108C06C2FCC0F770BAE
S1130580C72FCC1FCC27CC1F01C0CD2FF801619100
S11305908F01C60F4C01FFEF8F1A9F0A0E9485023C
S11305A021E0A21AB10831F7EC0CFD1C01C0C0E037
S11305B06C2FC7010E948502DF91CF911F910F918B
S11305C0FF90EF90DF90CF90BF90AF909F908F906F
S11305D008958F929F92AF92BF92CF92DF92EF9243
S11305E0FF920F931F93CF93DF937B016A01411511
S11305F0510511F1C82FD92F5A01CB01912C882410
S113060083948C010F5F1F4F0E947D02911008C0DC
S1130610292D990C330B232F221F2227221F01C0BF
S1130620282D982E920E899381E0A81AB108C8014A
S113063041F7EC0CFD1C01C0912CC7010E947D0206
S113064021E030E0891511F020E030E0C901DF91AC
S1130650CF911F910F91FF90EF90DF90CF90BF90BB
S1130660AF909F908F90089580E4E9E7F5E0DF0173
S11306701D928A95E9F76DE975E080E00E94502AA1
S1130680811103C087E00E943C23089564E176E071
S113069081E995E00E947F3908952F923F924F920D
S11306A05F926F927F928F929F92AF92BF92CF92FE
S11306B0DF92EF92FF920F931F93CF93DF93CDB707
S11306C0DEB7AD970FB6F894DEBF0FBECDBF8C0179
S11306D08AE3E9EBF5E0DF011D928A95E9F78BE007
S11306E0E9E7F5E0AAEBB5E001900D928A95E1F710
S11306F0F8018081843211F00C94E30DE9EBF5E00C
S113070081E08183128283E08983F1E0F8A3212CC4
S1130710312CE12CF12C1F8E1D8E1E8ECC24C39403
S1130720D12C0F2EF1E68F2EF3E09F2EF02D1C8F8F
S11307300B8F22C29FEB910F9A3110F00C94750D20
S11307408F5F8983AE014E5F5F4FBE016F5F7F4F46
S11307508B8D9C8D0E948315882311F40C94770D46
S11307604A805B806C807D80C301B2010E94AD40F1
S11307700E94EB3DA62E70E080E090E00E941C3EBB
S11307809B01AC01C301B2010E94723C20E030E045
S113079048EC52E40E94CA3F0E9437400E94EB3D5D
S11307A0862F972F173421F01D3409F4C1C01DC1C1
S11307B04A2C512C2FE54216510410F00C94790D5B
S11307C0F201EC5CFF4F0C94F540009711F00C948F
S11307D0E70D3E8D332311F40C94EF0D0C947B0D37
S11307E0A9EBB5E0AC92BCE1AB1631F0EEE1AE168C
S11307F019F0FCE5AF1285C0009749F00A9739F06B
S11308000C947D0D21E02E8F02C031E03E8F6A0DE5
S1130810A9EBB5E06C9320E07BC0BE8DB1110C94C4
S11308207F0DE2E0EE8FA092BA05F6E2AF126BC044
S11308308431910551F08E31910539F0883291055A
S113084021F0C29711F00C94810D262F372FADECB7
S1130850BCEC0E94FB409695879596958795969556
S1130860879586578093BA0521E052C06FEE6A0DD2
S11308706093BE0522E048C0009731F466EA6A0D31
S11308806093BD0523E044C00A9711F00C94830DD6
S11308902AE5A21611F40C94850D24E039C02EE546
S11308A02A192093BB0525E02FC025E12A1920939E
S11308B0BC0526E029C03E8D31110C94870D41E31F
S11308C0A41206C01092BF0528E083E08E8F20C0DA
S11308D00A9711F00C94890D91E09093BF0528E0DC
S11308E0A3E0AE8F15C06AEC6A0D6093C00529E0E1
S11308F00BC0892B11F00C948B0D2AE009C027E062
S113090003C020E001C021E0892B11F00C948D0D6F
S1130910C60102C0880F991F2A95E2F79701282380
S11309203923232B11F00C948F0DE82AF92A24C1C2
S1130930892B11F00C94910D8A2D90E08F31910543
S113094010F00C94930DFC01ED56FF4F0C94F54000
S1130950AA2021F0B1E0AB1699F105C0E3E0E093E1
S1130960C1058BE032C0A092C1058BE02EC0F4E03B
S1130970AF1659F025E0A21669F033E0A31222C0A5
S113098080E18093C3058CE020C080E28093C3059E
S11309908CE01BC01092C3058CE017C048E0A4167D
S11309A021F089E0A81641F00FC08091C20580644F
S11309B08093C2058DE009C01092C2058DE005C088
S11309C08BE003C08CE001C08DE0D60102C0AA0F09
S11309D0BB1F8A95E2F797012A233B23232B11F0AF
S11309E00C94950DEA2AFB2AC7C0812F90E0FC01E4
S11309F0E654F109E531F10510F00C94970DEE542D
S1130A00FF4F0C94F5404092C5055092C605609284
S1130A10C7057092C80580E08DC04092C905509208
S1130A20CA056092CB057092CC05BF8DB160BF8FB3
S1130A3081E080C04092CD055092CE056092CF05F2
S1130A407092D005EF8DE260EF8F82E073C0409228
S1130A50D1055092D2056092D3057092D405FF8DD2
S1130A60F460FF8F83E066C0A092D50584E062C085
S1130A70C301B2010E94E43D6093D6057093D7058B
S1130A808093D8059093D90585E054C04092DA0547
S1130A905092DB056092DC057092DD0586E04AC069
S1130AA04092DE055092DF056092E0057092E10508
S1130AB087E040C04092E2055092E3056092E4056D
S1130AC07092E50588E036C020E030E04FE753E45B
S1130AD0C301B2010E948A3F181614F40C94990DB4
S1130AE0A092E60589E026C04092E7055092E80509
S1130AF06092E9057092EA052D8D21602D8F8AE0C0
S1130B0019C04092EB055092EC056092ED0570928D
S1130B10EE053D8D32603D8F8BE00CC04092EF05B9
S1130B205092F0056092F1057092F2054D8D44608B
S1130B304D8F8CE05601082E02C0AA0CBB1C0A94EF
S1130B40E2F791012A213B21232B11F00C949B0DF8
S1130B50D40102C0B595A7958A95E2F7A0FF0AC013
S1130B6020E030E0A901C301B2010E94683D88235E
S1130B700CF4E3C72A283B288981EB8DFC8DE80F10
S1130B80F11D10811111D6CDBD8DBB2329F0EE8D41
S1130B90E11102C0F2E0FE8F25FE0EC08091D60561
S1130BA09091D705A091D805B091D905813896497F
S1130BB0A849B1050CF0C3C738A13323E1F020FEE6
S1130BC0C0C78091BC05813009F054C009EB15E021
S1130BD023E333E34BEC51E4D8011C966D917D91F2
S1130BE08D919C911F970E94CA3FF8016487758775
S1130BF0868797873FC08091BB05813061F4FE8D65
S1130C00F230C1F58091BA058035A1F1882391F1C4
S1130C1020FE99C72FC080917A0581112BC020FE38
S1130C2019C08091BC05813029F509EB15E023E357
S1130C3033E34BEC51E4D8011C966D917D918D9179
S1130C409C911F970E94CA3FF80164877587868725
S1130C50978710C08091880590918905A0918A0595
S1130C60B0918B058093C5059093C605A093C705E5
S1130C70B093C80530FC10C080918405909185051F
S1130C80A0918605B09187058093E2059093E305D2
S1130C90A093E405B093E5058091B905843021F46F
S1130CA026FE53C7E89426F88091BE05882349F0B0
S1130CB0813009F49CC71BA6F2E0FAA321E029A322
S1130CC09BC78091BC058130A1F532E03BA741E090
S1130CD04AA319A20F2EF9EBAF2EF5E0BF2EF02D8B
S1130CE000E010E08D8DC82ED12CC601002E02C06C
S1130CF0959587950A94E2F780FF12C023E333E3C6
S1130D004BEC51E4D5019E966D917D918D919C9112
S1130D10D1970E94CA3FF50166A777A780AB91AB34
S1130D200F5F1F4FF4E0AF0EB11C03301105E9F65D
S1130D3005C022E02BA731E03AA319A24E8D43301F
S1130D4041F48091BF05813021F48D8D843009F008
S1130D50FEC68CE0EDE9F5E0DE01169601900D92F9
S1130D608A95E1F7F1FE11C08091C005873008F043
S1130D70F0C690917F05891741F0BE016A5F7F4FED
S1130D800E94502A882309F4E6C6B090B9059AE077
S1130D90B91629F0ACE5BA1609F49AC00EC1BD8D96
S1130DA0BB2309F4DAC6C10180759927892B09F49C
S1130DB0D6C66091DA057091DB058091DC059091CF
S1130DC0DD050E94AD400E94EB3D673008F0C9C6C6
S1130DD08091D505843129F0823009F0C4C627FCFE
S1130DE0C4C6EFEA2E22662319F061506B8F03C04C
S1130DF0F091C005FB8F69EC75E08B8D0E94502A41
S1130E00882309F4B4C62091D5052BA34090B505D9
S1130E105090B6056090B7057090B80509EB15E0E1
S1130E200F2EF9E7CF2EF5E0DF2EF02DA12CB12CFB
S1130E303D8D832E912CC4010A2C02C09595879573
S1130E400A94E2F780FF36C04BA1443151F5D60134
S1130E50D0962D913D914D915C91D39758966D917B
S1130E607D918D919C915B970E94723CF80126A51F
S1130E7037A540A951A90E94723CD80150966D93A0
S1130E807D938D939C935397B2E0AB1213C0A3014F
S1130E9092010E94723CF801608B718B828B938B60
S1130EA009C0F80186A597A5A0A9B1A9808B918B4B
S1130EB0A28BB38BFFEFAF1ABF0A0C5F1F4F24E066
S1130EC0C20ED11C33E0A316B10409F0B4CFA6C6F8
S1130ED04D8D442309F44DC60F2EF9E7AF2EF5E0EE
S1130EE0BF2EF02D4E0186E0880E911C09EB15E013
S1130EF0C12CD12C642E712CC3010C2C02C09595ED
S1130F0087950A94E2F780FF3CC0D4012D913D916E
S1130F104D915C91F501608D718D828D938D0E9450
S1130F20723CD8019E962D913D914D915C91D19743
S1130F300E94723CF80166A777A780AB91ABF2E000
S1130F40CF1229C08601000F111F000F111F075473
S1130F501A4F2091B5053091B6054091B7055091CF
S1130F60B8050E94723CD8019E966D937D938D9333
S1130F709C93D1971091BA05103509F4FCC51B8ECA
S1130F80F8C0F50180A991A9A2A9B3A9F80186A77F
S1130F9097A7A0ABB1ABFFEFCF1ADF0A24E0A20EF4
S1130FA0B11C34E0830E911C0C5F1F4F43E0C41648
S1130FB0D10409F0A1CF1B8E31C68E8D833009F484
S1130FC090C09D8D992309F48CC0A090BD050F2E6F
S1130FD0F9E7CF2EF5E0DF2EF02D09EB15E03E0109
S1130FE0A6E06A0E711C812C912C492E512C9C8EEA
S1130FF08B8EC201082C02C0959587950A94E2F75E
S113100080FD0BC0F601808D918DA28DB38DF8010A
S113101086A797A7A0ABB1AB54C0F5E3BF1609F4FC
S113102050C0A1103BC0D601D0962D913D914D9159
S11310305C91D397F30160817181828193810E94D5
S1131040733CD8019E962D913D914D915C91D19721
S11310500E94733C9B01AC01F80166A777A780ABA3
S113106091ABF2E08F122DC00B8D1C8D000F111F60
S1131070000F111F07541A4F6091B5057091B60502
S11310808091B7059091B8050E94733CD8019E9653
S11310906D937D938D939C93D19723C0F601208DFE
S11310A0318D428D538DD8019E966D917D918D9198
S11310B09C91D1970E94733CF80166A777A780ABF7
S11310C091ABFFEF8F1A9F0A24E0C20ED11C0C5F74
S11310D01F4F34E0630E711C43E08416910409F041
S11310E086CF8EE1B81631F095E3B91699F1ACE1EB
S11310F0BA1235C0BCE1BB1209C069EC75E086E0E8
S11311000E94502A882309F438C57CC569EC75E02F
S113111087E00E94502A882309F431C573C5A901C8
S1131120082E02C0559547950A94E2F740FD0AC07F
S113113058964D915D916D917C915B97408B518B4D
S1131140628B738B0196149634968330910539F72C
S11311501B8E64C58091BA05823008F012C51091C7
S1131160BA05103529F4ED8DE1110DC51B8E46C26B
S11311701B8EFE8DF23009F041C2111105C02D8D78
S113118021113CC21E8E3AC220E030E0A9016091D8
S1131190C5057091C6058091C7059091C8050E9448
S11311A0683D882309F4F1C41C3809F40FC240F4E3
S11311B01230A1F01330A9F0113009F01FC209C098
S11311C01E3809F403C208F4FEC11F3809F4FBC138
S11311D015C23D8D311112C21E8E10C248A1446049
S11311E048A38D8D882309F4D2C4B9A1AB2FB0E0F4
S11311F0BDA7ACA7EAA1CE2ED12C81E090E08C0152
S113120009A002C0000F111F0A94E2F702C0880F60
S1131210991FEA95E2F7082B192BFD8D8F2F90E08B
S113122080239123892B09F4B4C4FD01EE0FFF1F21
S1131230EE0FFF1FE754FA4FAA0FBB1FAA0FBB1FE5
S1131240AF56BA4F2D913D914D915C9166A577A50E
S113125080A991A90E94723C6BA37CA38DA39EA339
S1131260F601EE0FFF1FEE0FFF1FE754FA4FD601F2
S1131270AA0FBB1FAA0FBB1FAF56BA4F2D913D91AA
S11312804D915C9166A577A580A991A90E94723CB5
S11312906FA378A789A79AA727FEEAC0E89427F83E
S11312A04CE050E067EE75E081E995E00E940A4168
S11312B0892B09F470C48091BC058130A1F409EB39
S11312C015E023E333E34BEC51E4D80195966D919B
S11312D07D918D919C9198970E94CA3FF80165A3D6
S11312E076A387A390A78090DE059090DF05A09059
S11312F0E005B090E10520E030E040E850E4C501AD
S1131300B4010E94CA3FA50194010E94CA3F4B0147
S11313105C012BA13CA14DA15EA1CA01B9010E94AF
S1131320CA3F9B01AC01C501B4010E94723C4B0150
S11313305C012FA138A549A55AA5CA01B9010E948B
S1131340CA3F9B01AC01C501B4010E94723C4B0130
S11313505C0120E030E0A9010E94683D88230CF480
S11313601CC4C501B4010E9469404B015C012FA15A
S113137038A549A55AA56BA17CA18DA19EA10E9467
S11313808E169B01AC01C501B40190580E94723DB8
S11313904B015C018091BA05833021F4B7FAB09413
S11313A0B7F8B0944090DE055090DF056090E005FA
S11313B07090E10520E030E0A901C301B2010E9470
S11313C0683D882384F4B7FAB094B7F8B09477FAF8
S11313D0709477F870944092DE055092DF05609225
S11313E0E0057092E1050CA51DA5000F111F000F6B
S11313F0111F07531A4F2FA138A549A55AA5C50196
S1131400B4010E94CA3F9B01AC016BA17CA18DA1D8
S11314109EA10E94723C20E030E040E05FE30E9425
S1131420CA3FD8016D937D938D939C931397860146
S1131430000F111F000F111F07531A4F2BA13CA1BE
S11314404DA15EA1C501B4010E94CA3F2FA138A5D8
S113145049A55AA50E94733C20E030E040E05FE3D8
S11314600E94CA3FF8016083718382839383C6C05C
S1131470FF8D8F2E912C08211921012B09F48FC384
S113148021EF22228091BC05813041F509EB15E062
S1131490A12CB12CC4010A2C02C0959587950A94FD
S11314A0E2F780FF12C023E333E34BEC51E4D801AD
S11314B050966D917D918D919C9153970E94CA3F56
S11314C0F801608B718B828B938BFFEFAF1ABF0A8D
S11314D00C5F1F4F23E0A216B104E1F6C601880F8A
S11314E0991F880F991FDC01A753BA4F6D012D91E5
S11314F03D914D915C916FA178A589A59AA50E9413
S1131500723C4B015C010CA51DA5000F111F000FBF
S1131510111F07531A4FF8012081318142815381F1
S11315206BA17CA18DA19EA10E94723CA501940196
S11315300E948E164B015C01D6012D913D914D9177
S11315405C91F80160817181828193810E948E1681
S11315502B013C016093DE057093DF058093E00569
S11315609093E1059B01AC01C501B4010E94723C5A
S11315704B015C01E894B7F82AE037ED43EA5BE3FA
S1131580C501B4010E948A3F1816C4F520E030E07A
S113159040E05FE3C501B4010E948A3F18160CF4D1
S11315A000C32FE632E143E85AE3C301B2010E94CB
S11315B0CA3F9B01AC01C501B4010E948A3F1816C1
S11315C00CF4F1C21BC0F8A1F061F8A31E5812304C
S11315D018F428A1286028A33D8D332309F4E5C21B
S11315E04CE050E067EE75E081E995E00E940A4125
S11315F0892B09F4DCC202C01B8E1E8E48A14170E7
S1131600D42E88A180FF03C0C1018E7D03C0C10117
S11316108E7D9C7FAE8DA111937E892B09F0C9C26A
S1131620FE01729689E0DF011D928A95E9F7DD20BB
S113163059F1B6EBEB22EF2809F0BDC28091B90550
S1131640853311F08111B9C2E9E7F5E0838594850A
S1131650A585B6858E8B9F8BA88FB98F9185808544
S1131660892B8A8F69EB75E0CE0142960E94440E65
S11316708111F1C29CE0E7EEF5E0A1E9B5E001904B
S11316800D929A95E1F7E7C28091520781FF26C037
S11316908091BA058150833018F0E8A1E064E8A392
S11316A0FD8DFF2339F02E8D223021F438A13068CE
S11316B038A314C080918205803181F4809179052A
S11316C08150833030F448A146FF08C0406248A3EB
S11316D005C088A186FD02C0806288A3E9E7F5E021
S11316E0A9EBB5E05D964D915D916D917C919097DC
S11316F0448B558B668B778B12968C9181838823D0
S113170011F088E08A8FA9EBB5E01C964D915D91AC
S11317106D917C911F97E9E7F5E04787508B618BCA
S1131720728B4A8B5B8B6C8B7D8B99968D909D9085
S1131730AD90BC909C97A5019401638574858585C3
S113174096850E94683D811103C098A195FF23C02E
S113175080918205882379F0A8A1AA2364F0A6FFCA
S113176006C040E050E0BA010E943E2D04C0B5011D
S1131770A4010E943E2D8091E2059091E305A09181
S1131780E405B091E5058093840590938505A093C5
S11317908605B0938705B8A1B6FD0CC08091840579
S11317A090918505A0918605B09187058E8B9F8BBE
S11317B0A88FB98FE9E7F5E0A9EBB5E09D968C9188
S11317C09D97838B1A968C919185981751F04E8929
S11317D05F89688D798D0E943E2D8091C305809329
S11317E08205E9E7F5E09A8D8185892B8A8F8091BE
S11317F0C2059085981731F00E9470028091C2054D
S1131800809381059A8D80918105892B8A8F80919F
S1131810B905843051F46091DA057091DB0580914B
S1131820DC059091DD050E94BC14E9E7F5E0A9EB25
S1131830B5E015968C911597848313968C918283C9
S1131840EE8DE33071F58091BF0580937E058111A3
S113185008C01092EF051092F0051092F105109255
S1131860F2058090EF059090F005A090F105B090FE
S1131870F205A50194016091B5057091B6058091BA
S1131880B7059091B8050E94683D882351F0809275
S1131890B5059092B605A092B705B092B8050E941E
S11318A05E398091C00590917F05981769F0809307
S11318B07F058CE0FE013696ADE9B5E001900D920E
S11318C08A95E1F70E945E39E9EBF5E08481809323
S11318D07C058081863209F446C038F48C3129F1C4
S11318E08E3119F18A3059F05FC08C3509F447C044
S11318F0863609F450C0883209F056C03AC069EC03
S113190075E08B8D0E94A12980917F05FB8D8F133B
S11319104BC08CE0E9ECF5E0ADE9B5E001900D9247
S11319208A95E1F70E945E393FC08A8D81608A8F73
S11319302E8D222339F0BE016E5E7F4F87EE95E037
S11319400E949A11BE016E5E7F4F89EC95E00E9461
S11319509A118CE0E9ECF5E0A1E9B5E001900D9273
S11319608A95E1F721C061E975E086E00E94A1292A
S11319701BC061E975E087E00E94A12915C08CE0D5
S1131980E7EEF5E0A9EAB5E001900D928A95E1F75A
S11319900E945E3909C08CE0E9EAF5E0DF011D929E
S11319A08A95E9F70E945E398091BA05809379059A
S11319B0803509F456C0BE8DB23009F052C0813072
S11319C041F4BE016E5E7F4F87EE95E00E949A114E
S11319D03AC081110BC08A8D81608A8FBE016E5E10
S11319E07F4F87EE95E00E949A112DC0825082307D
S11319F0E8F4E090DE05F090DF050091E005109139
S1131A00E105E8A1E2FB882780F98F938BA4AAA0C3
S1131A10C9A029EC35E041E955E0BE016E5E7F4F77
S1131A2087EE95E00E94DB110F900DC08A8D8460D3
S1131A308A8F48A1BE016E5E7F4F87EE95E00E94BB
S1131A40E71481110AC08CE0E7EEF5E0A1E9B5E006
S1131A5001900D928A95E1F704C0813011F40E943F
S1131A6046038091C10580938005882309F4F3C05F
S1131A700E94D42280918005833051F48091F40532
S1131A80823079F188E00E94053A0E94F92029C049
S1131A90E9E7F5E081E080831482138211821682E3
S1131AA011861086E4EFF5E084E6878380878187DA
S1131AB08081823099F06DE975E080E00E94502ABF
S1131AC0882309F47CC00E945E3940E050E0BA01EA
S1131AD080E00E94162D80E00E94640288E00E944B
S1131AE06123109280058D2DB6C081E0B4C082E0E0
S1131AF0B2C084E1B0C088E1AEC084E1ACC088E18A
S1131B00AAC084E1A8C084E1A6C084E1A4C088E19D
S1131B10A2C084E1A0C084E19EC087E19CC085E1AD
S1131B209AC087E198C084E196C085E194C084E1BD
S1131B3092C086E290C089E18EC084E08CC08BE1C3
S1131B408AC086E188C086E186C08CE184C085E2D3
S1131B5082C08DE180C087E07EC08AE17CC08CE1D8
S1131B607AC08DE178C084E176C084E174C087E0F6
S1131B7072C08AE170C08FE16EC087E06CC087E0FC
S1131B806AC08EE168C08FE166C086E164C08AE104
S1131B9062C080E260C081E25EC082E25CC083E237
S1131BA05AC081E258C081E256C08AE154C081E241
S1131BB052C084E250C080E14EC080E14CC087E056
S1131BC04AC08FE148C0198218A20C948703A9EB7C
S1131BD0B5E0AC92BCE1AB1227C00C94FE03E9EB78
S1131BE0F5E0A082FCE1AF1225C00C94020421E0D0
S1131BF02BA71AA232E039A38091BC05813009F0E9
S1131C009DC868C84D8D4423F1F0A9E7B5E0E9EB20
S1131C10F5E080E090E0242F30E081CA1091BA050D
S1131C20103509F0A6CACDCFAEE1AA120C94F9037F
S1131C300C94FE03BEE1AB1611F40C940504E1E030
S1131C40EE8F0C94F9031091BA05103509F4D4CC35
S1131C501B8E1E8E8ECAAD960FB6F894DEBF0FBED5
S1131C60CDBFDF91CF911F910F91FF90EF90DF9047
S1131C70CF90BF90AF909F908F907F906F905F9028
S1131C804F903F902F9008950F931F93CF93DF931E
S1131C90EC018B01FB0184859585A685B785888336
S1131CA09983AA83BB83888584608887809152073F
S1131CB085FF06C0CB018E960E949A39811115C00A
S1131CC0BE01C8018E960E949A11C091F405C111FB
S1131CD00EC00E942319892B59F080E28093F405E9
S1131CE00E946C300E94572D03C0CFE001C0C0E0B9
S1131CF08C2FDF91CF911F910F910895EBE6F0E0C7
S1131D008081897E8083E8E6F0E080818E7F808315
S1131D10089584B1897E84B985B1866185B980913D
S1131D20520783FF0BC0EBE6F0E08081866180837D
S1131D30E8E6F0E080818160808308950E947E0E51
S1131D400895EF92FF920F931F93CF93DF9313B1F4
S1131D5016718091520786FD1BC086E1182718C0B2
S1131D60C0E0D0E000E0EE24E394F12C8C2F0E943C
S1131D70202C812341F0C7010C2E02C0880F991F2B
S1131D800A94E2F7082B2196C330D10579F703C0F2
S1131D901111E6CF00E0802FDF91CF911F910F91B9
S1131DA0FF90EF9008951F920F920FB60F92112497
S1131DB02F933F934F935F936F937F938F939F934F
S1131DC0AF93BF93EF93FF938091F405813049F073
S1131DD080912006811105C00E945F1581E00E9458
S1131DE0483CFF91EF91BF91AF919F918F917F916B
S1131DF06F915F914F913F912F910F900FBE0F9074
S1131E001F9018952F923F924F925F926F927F92FC
S1131E108F929F92AF92BF92CF92DF92EF92FF92F6
S1131E200F931F93CF93DF93CDB7DEB7A5970FB66C
S1131E30F894DEBF0FBECDBF9091F5059111E5C1B9
S1131E408BA3FE01319689E0DF011D928A95E9F7A3
S1131E5086E08987EDE0F7E0F8A3EF8F7F019E012C
S1131E60265F3F4F590100E010E0412C512C320114
S1131E703BA1C32ED12C802F0E940C2CD5018D9315
S1131E805D01DA8EC98EC601002E02C09595879534
S1131E900A94E2F780FF19C020E030E040EC5FEBE9
S1131EA0F70164A175A186A197A10E94CA3F862E5D
S1131EB0972E282E392EA30192010E94683D882373
S1131EC024F0482C592C622C732C0F5F1F4FF4E024
S1131ED0EF0EF11C0330110571F6298C3A8C8091B8
S1131EE0580790915907A0915A07B0915B078B8FBF
S1131EF09C8FAD8FBE8F94E0998F01E00F2EF4EF8D
S1131F00CF2EF5E0DF2EF02D64E176E0CE010D96C4
S1131F100E947F39A3E5B7E0EC90F12CAE01435F5A
S1131F205F4FE4E1F6E0FAA3E9A3DE011A9680E04C
S1131F3090E060E010E053014201B7FAB094B7F8C2
S1131F40B094BDA3ACA39101082E02C0359527958A
S1131F500A94E2F720FF31C06F5F1082118212826F
S1131F6013829701082E02C0359527950A94E2F74B
S1131F7020FF10C0002339F0DA018D929D92AD92BA
S1131F80BC92139716C0DA014D925D926D927C92C9
S1131F9013970FC0002339F0DA014D925D926D92D0
S1131FA07C92139706C0DA018D929D92AD92BC92F9
S1131FB01397ACA1BDA12C91122B01962CA13DA18C
S1131FC02F5F3F4F3DA32CA34C5F5F4F349683306C
S1131FD0910509F0B8CF462E512C612C712CC30108
S1131FE0B2010E941A3E0E9469409B01AC01D601D5
S1131FF016961C936B8D7C8D8D8D9E8D0E94CA3F91
S113200069837A838B839C83BE016F5F7F4FCE018C
S11320100D960E948B1A24E0F60124830E946C30F2
S11320200E94572D0023F9F00E94A10EFE013A965A
S113203020E030E0682F70E08191982F912359F0CF
S1132040AB01022E02C0559547950A94E2F740FF72
S113205002C0809518232F5F3F4F2330310561F76D
S1132060D60116961C930E946C30809106068473E8
S113207039F11091060614FF03C086E00E94483C23
S113208015FF03C087E00E94483C0111BBC00E94B9
S1132090A10EBBA18B2339F088E00E94483C03C009
S11320A089E00E94483C80912006882329F00E9400
S11320B05F150E94F920A9C084E00E943E3C04C040
S11320C0812F8C7109F0AECF0E94F72FECE5F7E079
S11320D0808191810E948316F1E00F27D1F020E0E6
S11320E030E040EA50E4AEE5B7E06D917D918D912A
S11320F09C910E94CA3F2B013C01A4E5B7E08D915D
S11321009D910D90BC91A02D8B8F9C8FAD8FBE8F18
S113211011C0EEE5F7E04080518062807380A8E54D
S1132120B7E08D919D910D90BC91A02D8B8F9C8FCC
S1132130AD8FBE8FB98DB150B98FB111E5CEE0909E
S11321405307F12C80905E0790905F07A090600782
S1132150B09061072401350177FA709477F8709490
S113216000E010E0C9A0DAA0C101002E02C09595DC
S113217087950A94E2F780FF34C0C701002E02C09D
S1132180959587950A94E2F780FF15C0EF8DF8A125
S113219024A135A146A157A1C501B4010E94733CF5
S11321A0AF8DB8A12D913D914D915C910E94CA3F94
S11321B00E94973F0CC0EF8DF8A1208131814281AC
S11321C05381C301B2010E94CA3F0E94973FD601C6
S11321D06C9311967C93119712968C931297139685
S11321E09C930F5F1F4FB4E0CB0ED11CEF8DF8A171
S11321F03496F8A3EF8F0330110509F0B5CF109290
S1132200F80503C012FF4FCF4BCFA5960FB6F89435
S1132210DEBF0FBECDBFDF91CF911F910F91FF9015
S1132220EF90DF90CF90BF90AF909F908F907F9072
S11322306F905F904F903F902F900895CF93DF93CE
S11322400E949A398823D1F0E4EFF5E081E083839A
S11322508081883061F40E94053AC4EFD5E00E9481
S1132260F920898181110AC088818111F8CF0E94E7
S11322705F1582E00E94483C0E94F920DF91CF91D3
S113228008950E9466280E94FF2B0E942A300E9413
S1132290DB388CE0E4E1F6E0DF011D928A95E9F792
S11322A078941092F4058091520784FF03C081E072
S11322B08093F405C4EFD5E00F2EF1E1DF2EF02D6D
S11322C014E60F2EF8E0EF2EF6E0FF2EF02D0CE0D2
S11322D08881FE019D2D11929A95E9F788831F83C9
S11322E018871987D701E02F1D92EA95E9F7109214
S11322F0070610920606109220061092F30510921B
S113230005060E947F290E9434030E943C2C0E94EF
S113231060020E94890E0E940C1F0E94FC180E94F9
S1132320F72F0E949E1D0E9446030E94AC230E9428
S11323301C22CECFEF92FF920F931F93CF93DF9384
S11323408C017B018091520785FF07C08091F405C1
S1132350803239F0C8010E941E118091F405823048
S113236019F1C4EFD5E00E94F920898181111CC0C4
S11323700E944C19882319F00E942D1FF4CFB70135
S1132380C8010E948B1A81110FC08091520781FFEE
S11323900BC0F701808584FF07C0448155816681A5
S11323A0778180E10E943E2DDF91CF911F910F91A3
S11323B0FF90EF9008952F923F924F925F926F9209
S11323C07F928F929F92AF92BF92CF92DF92EF92C1
S11323D0FF920F931F93CF93DF93CDB7DEB7E297AE
S11323E00FB6F894DEBF0FBECDBF9AAB89AB788B26
S11323F06F875E874D873901ED82FE820F831887D0
S1132400898AD12CCC0CDD1CCC0CDD1CCA018C0DB2
S11324109D1D9E8B8D8BD901AC0DBD1DBEA7ADA797
S11324202D903D904D905C90FC0120813181428142
S11324305381C201B1010E94733C6F8B788F898FE5
S11324409A8F0A2D10E0000F111F000F111F8D85A8
S11324509E85800F911F9C8F8B8FD301A00FB11F7E
S1132460B8ABAFA78D909D90AD90BC90FC0120813E
S1132470318142815381C501B4010E94733C6D8F47
S11324807E8F8F8F98A3D201C101B05889839A831C
S1132490AB83BC83D501C401B05889879A87AB87C5
S11324A0BC87E9A9FAA9EC0DFD1D2F89388D498D4A
S11324B05A8D60817181828193810E94723C6B018B
S11324C07C01E9A9FAA9E00FF11F2D8D3E8D4F8DF6
S11324D058A160817181828193810E94723C4B0179
S11324E05C01A701960169817A818B819C810E949C
S11324F0CA3F2B013C01A501940169857A858B852E
S11325009C850E94CA3F9B01AC01C301B2010E9499
S1132510733C2B013C01A501940169817A818B8173
S11325209C810E94CA3F4B015C01A7019601698509
S11325307A858B859C850E94CA3F9B01AC01C501AD
S1132540B4010E94723CA30192010E94F23C4B012F
S11325505C0128968FAD28978823A9F02DEB37E3EB
S113256046E055EBC501B4010E948A3F8823FCF084
S11325702BED3FE049EC50E4C501B4010E94723CEC
S11325804B015C0114C02DEB37E346E055E3C50174
S1132590B4010E94683D181654F02BED3FE049EC5D
S11325A050E4C501B4010E94733C4B015C01C0902E
S11325B04607D0904707E0904807F09049072D81DF
S11325C03E814F815885CA01B9010E94733C2B0199
S11325D03C01A7019601C301B2010E94723CA7010C
S11325E096010E94CA3F0E9469406B017C0120E071
S11325F030E040E05FE3C501B4010E94CA3F2D8191
S11326003E814F8158850E94CA3F9F77A70196015A
S11326100E94723D0E94573E0E94EB3D6B017C017B
S11326203B016115710509F488C1AF85B889189615
S11326301C9113FF18C080E090E00E941A3E9B0199
S1132640AC01EF85F88960817181828193810E9458
S1132650CA3FAF85B8896D937D938D939C931397EF
S1132660177F18961C93B60180E090E00E941A3EF2
S11326706B017C019B01AC01C501B4010E94723D58
S113268069A77AA78BA79CA7B9898B2E912C880C54
S1132690991C880C991C4D845E84480C591CE9A92A
S11326A0FAA9E80DF91DD2012D913D914D915C914E
S11326B060817181828193810E94723CA70196019D
S11326C00E94723D698B7A8B8B8B9C8B29A53AA5D2
S11326D04BA55CA5CA01B9010E94CA3F9B01AC018C
S11326E060E070E080E090E40E94723C6B017C0149
S11326F02BEA3AEA4AE25EE369A57AA58BA59CA592
S11327000E94CA3F4B015C0120E030E040E850E405
S1132710C701B6010E94733C9B01AC01C501B40121
S11327200E94CA3F69A37AA38BA39CA320E030E054
S113273040E05FE3C701B6010E94CA3F6DA37EA3D8
S11327408FA398A7B2E06B16710408F4F6C010E0EA
S113275022242394312CC984DA84EB84FC841C3035
S113276008F044C0A70196016DA17EA18FA198A590
S11327700E94CA3F4B015C0129813A814B815C81F3
S113278069A17AA18BA19CA10E94CA3FA5019401D1
S11327900E94733C962EA72EB82E092F29813A81C8
S11327A04B815C816DA17EA18FA198A50E94CA3F37
S11327B069837A838B839C83A701960169A17AA19B
S11327C08BA19CA10E94CA3F9B01AC0169817A81C3
S11327D08B819C810E94723C69837A838B839C8366
S11327E01F5FC92CDA2CEB2CF02E66C0B10180E0FF
S11327F090E00E941A3E29A53AA54BA55CA50E942B
S1132800CA3F6B017C010E946D3D6D837E838F8383
S11328109887C701B6010E945B4069877A878B87D6
S11328209C87EDA5FEA5C080D180E280F380F7FAF5
S1132830F094F7F8F094AFA5B8A98D909D90AD9061
S1132840BC90A70196016D817E818F8198850E943D
S1132850CA3F69837A838B839C83A501940169852C
S11328607A858B859C850E94CA3F9B01AC01698156
S11328707A818B819C810E94733C69837A838B83E8
S11328809C83A701960169857A858B859C850E9426
S1132890CA3F6B017C01A50194016D817E818F810A
S11328A098850E94CA3F9B01AC01C701B6010E94F2
S11328B0723C6B017C0110E02F89388D498D5A8D53
S11328C069817A818B819C810E94733CED89FE89A8
S11328D060837183828393832D8D3E8D4F8D58A1A8
S11328E0C701B6010E94733CAB8DBC8D6D937D9383
S11328F08D939C93139729893A894B895C89F201BA
S113290060817181828193810E94733CD2016D93B5
S11329107D938D939C9313976F8578898D859E8580
S11329200E949A118091F50581110DC0BFEF2B1AF9
S11329303B0A6214730409F012CF6F85788989A960
S11329409AA90E949A11E2960FB6F894DEBF0FBEC0
S1132950CDBFDF91CF911F910F91FF90EF90DF904A
S1132960CF90BF90AF909F908F907F906F905F902B
S11329704F903F902F900895CF92DF92EF92FF9265
S11329802091F405223049F06B017C010E94D4228D
S113299040E0C701B6010E944916FF90EF90DF9016
S11329A0CF9008950E947E0E84E00E94020F83E07F
S11329B00E94020F0E94F9208091F505811106C042
S11329C00E9446030E949E1D0E94890E0895DF9274
S11329D0EF92FF920F931F93CF93DF932091F4050F
S11329E0223009F45FC0D42E7B018C010E94D422D2
S11329F08091F505811158C01092F905D3FA882702
S1132A0080F90E94FA1E0E94121F882351F084E06C
S1132A100E94483C0E94F92080E00E94FA1E82E055
S1132A2046C0B701C8010E949A1181E0809307064D
S1132A3082E00E94053AC4EFD5E00E94F920898122
S1132A40811134C088818111F8CF809107068130CB
S1132A5081F4D4FE0AC08CE0E4E1F6E0A8E0B6E03C
S1132A6001900D928A95E1F707C085E00E94483CE9
S1132A7003C081E08093F9051092070680E00E946C
S1132A80FA1E0E94F9200E94F72F0E94FC180E944F
S1132A909E1D0E94D22481E09091F905911107C0F6
S1132AA080E005C080E003C082E001C082E0DF91E5
S1132AB0CF911F910F91FF90EF90DF900895809137
S1132AC0060684FD1FC080E10E94053A0E94362C50
S1132AD00E945E028091F405982F9C7221F49091DB
S1132AE0F805967079F0843041F4809120068111C4
S1132AF007C086E00E94483C03C083E00E94483C33
S1132B000E947B2D08954F925F926F927F928F92D5
S1132B109F92AF92BF92CF92DF92EF92FF920F9368
S1132B201F93CF93DF93DC01FB01C081D0E0FC0154
S1132B30EC0FFD1F90819D3229F4EF0122969181C3
S1132B4001E00BC09B3229F02196CA0FDB1F00E085
S1132B5004C0EF012296918100E080E020E010E0C3
S1132B60412C512C320131E0FE0190539A3010F582
S1132B702F5F2930D8F48111115053014201880C80
S1132B80991CAA1CBB1C880C991CAA1CBB1C840C79
S1132B90951CA61CB71C880C991CAA1CBB1C2401E0
S1132BA03501490E511C611C711C09C0811107C0FB
S1132BB01F5F05C09E3F31F4811104C0832F9081B3
S1132BC02196D2CF222309F452C06A017B015D0110
S1132BD0C301B2010E941A3E2B013C0120E030E007
S1132BE0A9010E94683D882351F11F3F6CF42AE03B
S1132BF037ED43E25CE3C301B2010E94CA3F2B01FB
S1132C003C011E5F1F3F9CF311235CF42DEC3CEC54
S1132C104CEC5DE3C301B2010E94CA3F2B013C01AD
S1132C200EC0111664F420E030E040E251E4C30128
S1132C30B2010E94CA3F2B013C011150A1F70023AD
S1132C4051F077FA709477F87094F60140825182CB
S1132C506282738205C0F60140825182628273826D
S1132C60CA19DB09C150F701C08381E001C080E0CB
S1132C70DF91CF911F910F91FF90EF90DF90CF9054
S1132C80BF90AF909F908F907F906F905F904F9088
S1132C900895FF920F931F93CF93DF93F42E20E0B8
S1132CA030E040EA51E40E94CA3F0E94513D0E9434
S1132CB0EB3D6115710509F12091F50521111DC048
S1132CC0EB0104EF15E005C02197F8018181811122
S1132CD014C0F11003C00E94F92006C00E94351FE1
S1132CE0F801828181FD09C083ED90E30197F1F73A
S1132CF000C00000C130D10539F7DF91CF911F9199
S1132D000F91FF900895009741F0E9EFF0E03197BB
S1132D10F1F700C000000197C1F708954F925F9248
S1132D206F927F928F929F92AF92BF92CF92DF92D7
S1132D30EF92FF924B015C0169017A01A5019401B4
S1132D40C501B4010E94CA3F4B015C01A701960171
S1132D50C701B6010E94CA3F9B01AC01C501B40181
S1132D600E94733C0E946940FF90EF90DF90CF90E7
S1132D70BF90AF909F908F907F906F905F904F9097
S1132D8008954F925F926F927F92AF92BF92CF92CB
S1132D90DF92EF92FF920F931F93CF93DF93EC0197
S1132DA05C018CE0A80EB11C8E01412C512C320127
S1132DB0F801C190D190E190F1908F0120E030E0D2
S1132DC0A901C701B6010E94683D882371F0A701DB
S1132DD09601C701B6010E94CA3F9B01AC01C30121
S1132DE0B2010E94733C2B013C010A151B0501F73B
S1132DF0C301B2010E9469402B013C019B01AC015B
S1132E0060E070E080E89FE30E94723D6B017C010A
S1132E10A7019601688179818A819B810E94CA3FBA
S1132E206993799389939993CA15DB0589F7C3014B
S1132E30B201DF91CF911F910F91FF90EF90DF903E
S1132E40CF90BF90AF907F906F905F904F90089518
S1132E506F927F928F929F92AF92BF92CF92DF92A6
S1132E60EF92FF920F931F93CF93DF93EB018C01AB
S1132E707B018CE0E80EF11C0F2EF9E97F2EF02D7A
S1132E800F2EF6E7CF2EF02D0F2EF6E9DF2EF02DC4
S1132E900F2EFEE76F2EF02D89909990A990B9908E
S1132EA020E030E0A901C501B4010E94683D8823F7
S1132EB0D9F0A5019401F801608171818281938127
S1132EC00E94723D4B015C01E894B7F8272D3C2D1C
S1132ED04D2D562DC501B4010E948A3F181624F0C9
S1132EE0782CC92CDA2C6B2C0C5F1F4FCE15DF0508
S1132EF099F6672D7C2D8D2D962DDF91CF911F9105
S1132F000F91FF90EF90DF90CF90BF90AF909F9084
S1132F108F907F906F9008952F923F924F925F927F
S1132F206F927F928F929F92AF92BF92CF92DF92D5
S1132F30EF92FF920F931F93CF93DF93C0911E01E3
S1132F40C11101C0C0E1C150D0911C01DC1709F4CA
S1132F5036C10C2F10E022E3C29FC0011124FC01F2
S1132F60E05EFE4F6F01E688F788908C818C628D5D
S1132F70738D848D958D9B01AC010E94733CF60189
S1132F80268D378D40A151A10E94CA3FA62EB72E8F
S1132F90C82ED92E262F372F482F592F6E2D7F2D2F
S1132FA0892D982D0E94683D882324F0EA2CFB2C5F
S1132FB09C2C8D2C82E3809FF001819FF00D1124C5
S1132FC0E05EFE4F8E2D9F2DA92DB82D828B938B05
S1132FD0A48BB58BC11101C0C0E1C150DC1307C083
S1132FE080911F01D8137CC00E944C3079C022E329
S1132FF0209FC001219F900D11249C01205E3E4F13
S11330006901D2E3EC2EF12CDE9D8001DF9D100DD1
S11330101124005E1E4FC11101C0C0E1C150809156
S11330201F018C1302C00E944C30DE9DF001DF9D15
S1133030F00D1124E05EFE4F46885788608C718C39
S1133040A301920162897389848995890E94683DEC
S1133050882309F440C0DE9DC001DF9D900D11243A
S1133060FC01E05EFE4F5F01628D738D848D958D52
S11330709B01AC010E94733CF501268D378D40A164
S113308051A10E94CA3FF601228933894489558996
S11330900E94733C4B015C019B01AC01C301B20172
S11330A00E948A3F181664F4DE9DF001DF9DF00D46
S11330B01124E05EFE4F828A938AA48AB58A0BC0EB
S11330C0DE9DF001DF9DF00D1124E05EFE4F428A8B
S11330D0538A648A758A680180911C018C1392CF8B
S11330E020901C01F2E32F9EC00111249C01205E5C
S11330F03E4F7901C1E0C20DC03109F4C0E0309007
S11331001E01D2E358C0CC2ED12CDC9D8001DD9D64
S1133110100D1124005E1E4FF70142885388648805
S11331207588F80182889388A488B588A5019401DC
S1133130C301B2010E94683D882324F5F701628D22
S1133140738D848D958D9B01AC010E94733CF701B6
S1133150268D378D40A151A10E94CA3FA30192013F
S11331600E94733C2B013C019B01AC01C501B401DD
S11331700E948A3F181634F4F801428A538A648AFA
S1133180758A2C2EDC9DF001DD9DF00D1124E05E8E
S1133190FE4F26893789408D518D628973898489D0
S11331A095890E94683D811101C02C2ECF5FC031EA
S11331B009F4C0E07801C311A6CF20921C01DF916D
S11331C0CF911F910F91FF90EF90DF90CF90BF9020
S11331D0AF909F908F907F906F905F904F903F90B3
S11331E02F90089510921F0110921E0181E0809388
S11331F01D0110921C0108958CE1E0E0F1E0DF0173
S11332001D928A95E9F70E94F218089580911F0192
S113321090911E01981769F091E0980F903109F48C
S113322090E020911C01821302C090931C019093A2
S11332301F01089580911E0122E3829FC001112481
S1133240805E9E4F089580911F0190911E019817F2
S113325039F022E3829FC0011124805E9E4F0895BD
S113326080E090E00895E0911F01EF5FE03109F400
S1133270E0E080911E018E1759F082E3E89FF0018F
S11332801124E05EFE4F62897389848995890895CB
S113329060E070E0CB01089581E020911F019091DE
S11332A01D01291380E00895AF92BF92CF92DF925F
S11332B0EF92FF920F931F93CF93DF93EC011AA524
S11332C0ABA4ECA40DA5898980FF1AC06091FC050C
S11332D070E080E090E00E941C3E2AE037ED43E27B
S11332E05CE30E94CA3F9B01AC01612F7A2D8E2DB5
S11332F0902F0E94CA3F162FA72EE82E092F2FC009
S113330082FD19C06091FB0570E080E090E00E94AE
S11333101C3E2AE037ED43E25CE30E94CA3F9B0176
S1133320AC01612F7A2D8E2D902F0E94CA3F162F4B
S1133330A72EE82E092FBEA0CFA0D8A4F9A42B2D28
S11333403C2D4D2D5F2D612F7A2D8E2D902F0E94B7
S11333508A3F181624F41B2DAC2CED2C0F2D20E0E5
S113336030E040E85FE3612F7A2D8E2D902F0E948C
S11333708A3F18161CF4DA2DCE2D04C010E0D0E0DC
S1133380C0E80FE3612F7D2F8C2F902FDF91CF9119
S11333901F910F91FF90EF90DF90CF90BF90AF906F
S11333A008955F926F927F928F929F92AF92BF9295
S11333B0CF92DF92EF92FF920F931F93CF93DF93FD
S11333C010911F0150901E010F2EF9E99F2EF02D30
S11333D00F2EF6E78F2EF02D0F2EF6E97F2EF02D0F
S11333E00F2EFEE76F2EF02D0F2EF2E3CF2EF02DD1
S11333F074C0C12FD0E0CC9EC001CD9E900D11248D
S1133400805E9E4F0E945419062FF72EE82ED92E67
S1133410262F372F482F592F692D782D872D962D3C
S11334200E94683D8823CCF4CC9EC001CD9E900DB3
S113343011249C01205E3E4F5901292D382D472D22
S1133440562D692D782D872D962D0E94CA3FF501A2
S1133450668B778B808F918F18C0CC9EC001CD9ED8
S1133460900D11249C01205E3E4F5901202F3F2DC9
S11334704E2D5D2D602F7F2D8E2D9D2D0E94CA3FD8
S1133480F501668B778B808F918FCC9EF001CD9E5A
S1133490F00D1124E05EFE4F82A093A0A4A0B5A07D
S11334A0A501940166897789808D918D0E948A3F58
S11334B018165CF4CC9EF001CD9EF00D1124E05E54
S11334C0FE4F868A978AA08EB18E1F5F103109F451
S11334D010E0902E8F2C7E2C6D2C15118ACF892D07
S11334E0982DA72DB62D8093180190931901A093C0
S11334F01A01B0931B01DF91CF911F910F91FF909F
S1133500EF90DF90CF90BF90AF909F908F907F907F
S11335106F905F9008952F923F924F925F926F92B7
S11335207F928F929F92AF92BF92CF92DF92EF924F
S1133530FF920F931F93CF93DF93CDB7DEB7C6549B
S1133540D1090FB6F894DEBF0FBECDBF25967FAF6D
S11335506EAF259720901E01A22CB12C22E32A9D48
S1133560A0012B9D500D1124BA01605E7E4F21965F
S11335707FAF6EAF2197FB0111922A95E9F725964B
S1133580EEADFFAD25972085FB01218B2596EEAD91
S1133590FFAD259744815581668177812196EEADF3
S11335A0FFAD219746A757A760AB71AB21FF0AC0B7
S11335B02CE0E4E1F6E0DE011D9601900D922A95DF
S11335C0E1F76DC22CE0E0E0F1E0DE011D96019030
S11335D00D922A95E1F763C2E9ADFAAD619171915B
S11335E081919191FAAFE9AFEBADFCAD21913191AD
S11335F041915191FCAFEBAF2DAB3EAB4FAB58AF0C
S11336000E94CA3F0E94973FF40161937193819392
S113361091934F01F60101911191219131916F0123
S1133620601B710B820B930B8B019C013AF40027F6
S113363011279801061B170B280B390BF101019375
S11336401193219331931F01F701408051806280CF
S11336507380401651066206730610F4280139017E
S1133660F70140825182628273820E941C3E2DA91E
S11336703EA94FA958AD0E94723DEDADFEAD6193D8
S1133680719381939193FEAFEDAF20E030E0A901F7
S11336900E94683D882354F489A90E94162C279619
S11336A0EEADFFAD27979081892B8083F9A9FF5F49
S11336B0F9ABF33009F090CF82E38A9DF0018B9D42
S11336C0F00D1124E05EFE4F84859585A685B785AF
S11336D0892B8A2B8B2B09F4DEC1CE0149960E94DB
S11336E0C11622E32A9D80012B9D100D1124005E3A
S11336F01E4FF801668F778F80A391A3BE01675E8A
S11337007F4F85E297E00E942817F801628F738F3C
S1133710848F958FBE01675E7F4F89E197E00E9499
S11337202817F80166A377A380A791A7118910FF32
S11337300DC022E32A9DF0012B9DF00D1124E05EC3
S1133740FE4F62A773A784A795A722C02596EEAD66
S1133750FFAD2597208131814281538182E38A9D87
S1133760F0018B9DF00D1124E05EFE4F22A733A7DC
S113377044A755A713FF0CC07F01668D778D80A1E8
S113378091A10E94CA3FF70162A773A784A795A7D6
S113379090911E0180911F01981711F011FF11C023
S11337A082E38A9DF0018B9DF00D1124E05EFE4FB3
S11337B0128A138A148A158A12A213A214A215A2B9
S11337C0D8C00CE011E01E01F5E22F0E311C4101BE
S11337D019AA1AAA1BAA1CAAF801C190D190E190B7
S11337E0F1908F012396EEADFFAD23974190519058
S11337F0619071902396FFAFEEAF2397A3019201DE
S1133800C701B6010E94CA3F9B01AC0169A97AA90C
S11338108BA99CA90E94723C69AB7AAB8BAB9CAB25
S1133820A7019601C301B2010E94723CF1016193A8
S11338307193819391931F0123962EAD3FAD2397EE
S11338402815390549F62FEE3FEF4FE75FE369A9E5
S11338507AA98BA99CA90E948A3F18166CF482E36A
S11338608A9DF0018B9DF00D1124E05EFE4F12A2A3
S113387013A214A215A27DC02FEE3FEF4FE75FEB1A
S113388069A97AA98BA99CA90E94683D88238CF414
S113389082E38A9DF0018B9DF00D1124E05EFE4FC2
S11338A089E996E7A6E9BEE782A393A3A4A3B5A3F7
S11338B060C0CE0185960E94C116BE016B5D7F4F2C
S11338C085E297E00E9428176B017C0129A93AA997
S11338D04BA95CA960E070E080E89FE30E94723C21
S11338E020E030E040E05FE30E94CA3F0E9469406C
S11338F02B013C012091420730914307409144073A
S113390050914507C701B6010E94CA3FA301920125
S11339100E94CA3F6B017C01A301920160E070E048
S113392080E89FE30E94723C9B01AC01C701B60191
S11339300E94723DE62EF72E082F192F20E030E06A
S1133940A9010E94683D882324F4E12CF12C00E0B5
S113395010E082E38A9DF0018B9DF00D1124E05E5E
S1133960FE4F4E2D5F2D602F712F42A353A364A3EE
S113397075A382E38A9DF0018B9DF00D1124E05E16
S1133980FE4F818981FD89C021968EAD9FAD21971F
S11339900E9454196B017C01409018015090190148
S11339A060901A0170901B01A30192010E948A3F4A
S11339B01816A4F482E38A9D80018B9D100D1124B6
S11339C0005E1E4FA3019201C301B2010E94CA3FCF
S11339D0F801668B778B808F918F13C082E38A9D69
S11339E080018B9D100D1124005E1E4FA7019601CE
S11339F0C701B6010E94CA3FF801668B778B808F9E
S1133A00918F82E38A9DF0018B9DF00D1124E05E7D
S1133A10FE4F42A053A064A075A0A3019201668941
S1133A207789808D918D0E948A3F181664F482E311
S1133A308A9DF0018B9DF00D1124E05EFE4F468AB5
S1133A40578A608E718EC0921801D0921901E0924B
S1133A501A01F0921B018CE0FE017996ACE0B1E012
S1133A6001900D928A95E1F78CE0FE013196A0E079
S1133A70B1E001900D928A95E1F780911D01809348
S1133A801E018F5F803109F480E080931D010E9444
S1133A908C1781E039C080E037C081E035C089AF40
S1133AA09AAF2DE037E03CAF2BAFAE014F5F5F4FD5
S1133AB04A016E015DE0C50ED11C62E3269EC00181
S1133AC01124FC01E05EFE4F1F019E01275E3F4F63
S1133AD023963FAF2EAF23973EAF2DAF10E022E3E6
S1133AE02A9DC0012B9D900D1124805E9E4F7C0168
S1133AF03CE0E30EF11CAC01405F5F4F27965FAFE3
S1133B004EAF279719AB68CDCA5BDF4F0FB6F89459
S1133B10DEBF0FBECDBFDF91CF911F910F91FF90FC
S1133B20EF90DF90CF90BF90AF909F908F907F9059
S1133B306F905F904F903F902F900895E4E1F6E0EE
S1133B40A0E0B1E080E296E04191519161917191E0
S1133B504D935D936D937D93E817F907A9F7089545
S1133B6090911E0180911F01981718F0815F891BA5
S1133B7008958150891B08950E944C3080911F0143
S1133B8080931C010E948C170895CF93DF93EC015E
S1133B908881882331F021960E94752889918111AA
S1133BA0FBCFDF91CF910895CF93DF93EC01219662
S1133BB0FC018491882339F00E947528FE018491C8
S1133BC021968111F9CFDF91CF910895CF93DF939F
S1133BD0843690F09DEC899F912D112496959695AD
S1133BE09695392F330F232F220F220F230F821B79
S1133BF0D0E3D80F892F01C0D0E08A30F8F09DECD3
S1133C00899F912D1124969596959695392F330F6A
S1133C10232F220F220F230FC82FC21BC05D80E366
S1133C20890F0E947528CC2319F08C2F0E947528C7
S1133C30DD2341F08D2F0E94752804C0805D0E9411
S1133C407528F6CFDF91CF9108958F929F92AF920E
S1133C50BF92CF92DF92EF92FF920F931F93CF9375
S1133C60DF93CDB7DEB72D970FB6F894DEBF0FBE46
S1133C70CDBF6B017C01042F20E030E0A9010E943C
S1133C80683D88233CF48DE20E947528F7FAF0948D
S1133C90F7F8F094023088F0102F20E030E048EC80
S1133CA052E4C701B6010E94CA3F6B017C01125065
S1133CB0123098F7802F817001C0802F882351F033
S1133CC020E030E040E251E4C701B6010E94CA3F5F
S1133CD06B017C0120E030E040E05FE3C701B60106
S1133CE00E94733C0E94E43D6115710581059105B4
S1133CF019F120E00F2EFAE08F2E912CA12CB12C7B
S1133D00F02D11E0120FEE24E394F12CEC0EFD1EC5
S1133D10E20EF11CA50194010E94D340605DF701FD
S1133D206083622F732F842F952F212F61157105C6
S1133D308105910531F701C010E0101760F480E3AC
S1133D40E1E0F0E0EC0FFD1FE10FF11D80831F5F48
S1133D500113F6CF02C0011307C011E0100F80E376
S1133D60FE01E00FF11D8183112369F0011303C0EB
S1133D708EE20E947528FE01E10FF11D80810E94F0
S1133D807528115099F72D960FB6F894DEBF0FBE23
S1133D90CDBFDF91CF911F910F91FF90EF90DF90F6
S1133DA0CF90BF90AF909F908F900895209152072D
S1133DB020FF0AC02BE832E441E25DE30E94CA3FDF
S1133DC044E00E94251E089543E00E94251E0895A4
S1133DD02091520720FF0AC02BE832E441E25DE360
S1133DE00E94CA3F41E00E94251E089540E00E94BF
S1133DF0251E0895109222069091520799231CF0D3
S1133E0090E290932206882331F09091220680E27A
S1133E1089278093220608953D98459A80E00E9460
S1133E20FA1E089586B1807290912206892708951A
S1133E300E94121F882381F0109207068CE0E4E1AF
S1133E40F6E0A8E0B6E001900D928A95E1F7809142
S1133E50060680648093060608950E942319892B20
S1133E6019F082E00E94053A0895CF93C09120068C
S1133E70CC23A9F081E08093F4058C2F0E94502379
S1133E80C150C23050F481E00E94612380E10E945D
S1133E903E3C8091060684FFFCCF0E944E3CC091BC
S1133EA00606CC2309F4F8C0C4FF04C081E0809363
S1133EB0F5059DC1C0FF05C00E94682681E00E94EF
S1133EC03E3C8C2F887E09F464C08091F405982FC1
S1133ED0937009F04DC0887299F08091F605807C4A
S1133EE079F40E944C30E4EFF5E082E08483808131
S1133EF0803231F4CC23BCF092819068928313C059
S1133F008091F405811106C091E09093F605C6FDF9
S1133F1005C065C1C6FF07C085FD05C0E4EFF5E037
S1133F20928190649283C3FF05C0807E19F480E17E
S1133F308093F405C5FF1CC086E00E946123809134
S1133F40F605882384F09091F405903439F483FFC6
S1133F5007C0837E82608093F60502C0903819F012
S1133F6080E48093F405E4EFF5E08281806282834B
S1133F70CC2364F48091F405813029F4E4EFF5E076
S1133F8082818560828380E88093F40588EE0E94B4
S1133F903E3CC1FF43C08C2F8876E9F58091F4053F
S1133FA0803479F48091F60585FD35C084FF03C023
S1133FB01092F40518C082FF2EC088608093F60525
S1133FC02AC0882381F084FF26C09091F60590FFD3
S1133FD022C0803141F48091FE05882321F088605D
S1133FE08093FE0518C01092F8050E942319892BAE
S1133FF071F08091F60586FD0AC0E4EFF5E01282C7
S113400088E080830E946C300E94572D04C0E4EF46
S1134010F5E01282108282E00E943E3CC2FF3CC066
S11340208091F405807DB9F08091F705811113C06A
S11340308091F60588239CF00E94BC1D8091F805B0
S113404081FF05C0E4EFF5E0928191609283897F5E
S11340508093F8051EC08091F605882354F41092CD
S1134060F8050E94FC180E94F72F0E9446030E9444
S11340709E1D8091F60585FF08C0E4EFF5E08F777B
S11340808160828380E4808304C0E4EFF5E01282DF
S1134090108284E00E943E3CC091F305CC2381F160
S11340A00E94663C2091FB05C0FF02C084E601C06B
S11340B0822FC1FD865FC2FD8A50C3FD8F5FC4FDA0
S11340C08150893C08F088EC8A3008F48AE0309109
S11340D0FC05C5FF02C094E601C0932FC6FD92E320
S11340E0CC230CF499E1281302C0931749F0E4EFB0
S11340F0F5E08783908713860E94D1190E94BC1D26
S1134100C0910506CC2309F458C00E946C3C9091E0
S1134110FD05C0FF02C084E601C0892FC1FD865F92
S1134120C2FD8A50C3FD8F5FC4FD8150893C08F0F5
S113413088EC8A3008F48AE09817B9F0E4EFF5E0E7
S11341408187808181110AC0E9E7F5E043855485C0
S11341506585768581850E94162D05C0E4EFF5E01E
S11341608481886084831092FF05C5FF12C080910A
S1134170F405803171F48091FE05811104C082E060
S11341808093FE0529C080FF27C084608093FE05CC
S113419023C0C07C91F08091F405882311F08873CA
S11341A061F0C0918105C6FF02C0CF7B01C0C0642D
S11341B08C2F0E946402C09381058091210688237C
S11341C021F00E945928109221068091F4058C7FD9
S11341D071F00E946C300BC0C07C19F703C0C3FDA2
S11341E0A6CEA8CE80912106882399F3EACFCF9159
S11341F008957F928F929F92AF92BF92CF92DF9257
S1134200EF92FF920F931F93CF93DF930E94351F7A
S11342108091F605882309F401C10E942319EC0159
S1134220892B51F4E9E7F5E0D1848085D82A838489
S11342309484A584B6840BC08989182F10730E94B6
S11342405802D82ED12A8EA49FA4A8A8B9A88091D8
S1134250520781FF03C080E20E945D3C9091F60505
S1134260992309F4DBC08091F5058111D7C0C4EF0F
S1134270D5E08D2D8073C82E09E715E00F2EF2E5E9
S1134280EF2EF7E0FF2EF02D77247394ED2DE07CD4
S1134290DE2E03C029812111C1C090FFB2C0288144
S11342A0322F307C09F471C092FD0FC01A8640E0B1
S11342B050E0BA0180E00E94162D80E00E94640262
S11342C08A818D7F84608A839CC02038D1F48BE0FE
S11342D00E94612340E050E0BA0180E00E94162D64
S11342E080E00E9464020E947B2D8091F50581117B
S11342F095C0C4EFD5E00E94351F89818823D9F386
S11343008DC0203439F40E943839811103C08A8168
S11343108F7D8A838A8183FF74C0F80191859923F4
S1134320D1F081FD74C0F701808181FF08C08C81C8
S113433088608C83F8018085811114C06DC0B5013B
S1134340A4018C2D0E94162D472D60E070E080E8BA
S113435090E40E944916F8018085882369F08A81D7
S113436081FD4FC08D2D0E946402472D60E070E0F6
S113437080E89FE30E9449168A8181FD42C08061E2
S11343808A8382E00E94053A3CC09A85992371F1A0
S113439091FF0EC0F8018185882341F040E050E090
S11343A0BA0180E00E94162D7A862BC01A8629C095
S11343B09C7039F1F8018185882381F08AE00E949C
S11343C06123F701808181FF04C08C8188608C8324
S11343D005C0B501A4018C2D0E94162D8A8583FF8A
S11343E003C082E00E94053A1A860BC08C8183FFC9
S11343F008C0B501A4018C2D0E94162D8C81877FE5
S11344008C830E94351F9A81911144CF07C0F80113
S113441080858111F6CFB0CF8A81B1CFDF91CF9162
S11344201F910F91FF90EF90DF90CF90BF90AF90CE
S11344309F908F907F900895DF92EF92FF920F9359
S11344401F93CF93DF938091520783FF0AC00E948A
S1134450A10E882331F081E08093F40587E00E9467
S113446061238091F405817871F082E00E946123D8
S113447081E08093F405F12CE12CC4EFD5E000E455
S113448014E0D12C7DC01092F4050E9438398823A1
S113449039F0809106068062809306060E94F92016
S11344A080E494E00E943A39E6CF8A3011F08D30EE
S11344B0B9F50E94F920898181116EC0EF2DF0E0D9
S11344C0E05CFB4F1082E0FE06C08BE00E943C23C0
S11344D0FD2CE12C55C0F8018081811106C08D2D81
S11344E00E943C23FD2CE12C4BC0843241F4C801D2
S11344F00E940E3A0E943C23FD2CE12C41C088818D
S1134500817231F089E00E943C23FD2CE12C38C0FB
S1134510C8010E944D030E943C23FD2CE12C30C0B5
S1134520EE2031F0893261F5FE2DFD7FEF2E28C09B
S1134530813230F18F3221F18832C1F08B33D1F0E6
S11345409EE49F15D8F09FE9980F9A3140F4EF2D1F
S1134550F0E0E05CFB4F80528083F39411C0EF2DB8
S1134560F0E0E05CFB4F8083F3940AC06894EE248F
S1134570E1F806C06894EE24E2F802C0EE24E39465
S11345800E94BB288F3F09F090CF0E942D1F0E94EC
S1134590F92089818823A1F3DF91CF911F910F9195
S11345A0FF90EF90DF900895CF93DF930E942D1F2B
S11345B0C4EFD5E00E94F9208981811107C00E94CF
S11345C02319892BB9F788818830A1F3DF91CF9122
S11345D0089584E294E00E94D41D08958DE50E941C
S11345E075280E94E92208950F931F93CF938C019D
S11345F0C0E0F80161917191819191918F010E94C4
S1134600D61EC23018F48CE20E947528CF5FC330E6
S113461081F7CF911F910F910895CF93C82F84E212
S11346200E9475288C2F0E94E61D8DE30E94752838
S1134630CF910895CF93C62F0E940D238C2F0E94F3
S1134640E61D0E94E922CF910895CF92DF92EF9266
S1134650FF92CF936A017B01C22F0E940D234C2F3E
S1134660C701B6010E94251E0E94E922CF91FF9046
S1134670EF90DF90CF900895CF93C82F811105C09C
S11346808EE294E00E94D41D09C087E294E00E9467
S1134690D41D8C2F0E94E61D0E94E922CF9108951B
S11346A0CF93C82F8DE194E00E94D41D8C2F0E94DB
S11346B0E61D0E94E92284EF91E00E948316CF91C7
S11346C00895CF93C82F87E194E00E94D41D8C2FC6
S11346D090E0FC013197EB30F105D0F5E953FF4F41
S11346E00C94F54085E094E00E94D41D31C081EF24
S11346F093E00E94D41D2CC08FED93E00E94D41D42
S113470027C087ED93E00E94D41D22C08EEC93E075
S11347100E94D41D1DC083EC93E00E94D41D18C0D8
S113472086EB93E00E94D41D13C08EEA93E00E94AE
S1134730D41D0EC08BE993E00E94D41D09C089E802
S113474093E00E94D41D04C080E893E00E94D41D2D
S11347500E94EE22CF91089583E693E00E94D41D37
S1134760089589E193E00E94D41D0895EF92FF9289
S11347700F931F93CF93DF930DE017E0F80160A927
S113478070E080E00E941A23F80163A970E081E0E0
S11347900E941A23F80161A970E082E00E941A23A2
S11347A0F80162A970E083E00E941A23C2E5D7E011
S11347B0688162FB662760F970E084E00E941A2336
S11347C0688166FB662760F970E085E00E941A2321
S11347D08881082E000C990B692F661F6627661FB7
S11347E070E086E00E941A23F80164A970E08AE070
S11347F00E941A23F80145A956A967A970AD23E0C0
S11348008BE00E942523F80141AD52AD63AD74AD38
S113481023E08CE00E9425236881617070E08DE0C4
S11348200E941A23688165FB662760F970E084E1C1
S11348300E941A23688163FB662760F970E085E1B2
S11348400E941A2368816295617070E086E10E947B
S11348501A236091530770E087E10E941A23409164
S1134860540750915507609156077091570723E0FC
S113487088E10E942523409158075091590760917F
S11348805A0770915B0723E089E10E942523609118
S11348905C0770915D078AE10E941A2340915E07CC
S11348A050915F07609160077091610723E08BE18D
S11348B00E94252340914A0750914B0760914C0771
S11348C070914D0720E08EE10E94252340914E0710
S11348D050914F07609150077091510720E08FE18C
S11348E00E94252368816695617070E080E20E94D1
S11348F01A230F2EF4E6FF2EF02DD0E043C0D13062
S113490081F028F0D230B9F0D33039F130C0F80159
S1134910408151816281738123E08C2F0E94252381
S113492026C0F801448555856685778523E08C2F5C
S11349300E9425231CC020E030E041E655E4F80144
S1134940608D718D828D938D0E94723DAB01BC018F
S113495023E08C2F0E9425230AC0F80144A155A10D
S113496066A177A1705823E08C2F0E9425230C5F49
S11349701F4FCF5FCE11C3CFFAE0FF0EDF5F8CE88D
S1134980F81649F00DE017E00F2EF3E0EF2EF02DAE
S1134990EF0CCF2DB4CFDF91CF911F910F91FF90EA
S11349A0EF900895CF93DF93CDB7DEB72C970FB672
S11349B0F894DEBF0FBECDBF83E193E00E94D41D07
S11349C068E076E0CE0101960E947F39CE0101961F
S11349D00E94F4228AE30E9475288091F9050E94BE
S11349E0E61D0E94EE222C960FB6F894DEBF0FBE91
S11349F0CDBFDF91CF9108950F931F93CF93DF9392
S1134A00CDB7DEB72C970FB6F894DEBF0FBECDBF7F
S1134A1001E001C00F5F1FEF100FBE016F5F7F4FFA
S1134A20812F0E94502A811104C087E00E943C23F8
S1134A3051C080E193E00E94D41D163019F0173064
S1134A4079F01CC08DE093E00E94D41D8AE30E949B
S1134A507528CE0101960E94F4220E94EE22DACF3C
S1134A608AE093E00E94D41D8AE30E947528CE0157
S1134A7001960E94F4220E94EE2210C085E3800F6A
S1134A800E94E61D8AE30E947528CE0101960E94C9
S1134A90F4220E94EE22083008F4BCCF84E093E0B4
S1134AA00E94D41D89EA95E00E94F4220E94EE221D
S1134AB08EEF92E00E94D41D6091B5057091B60509
S1134AC08091B7059091B8050E94D61E0E94EE22EF
S1134AD00E94D2242C960FB6F894DEBF0FBECDBF31
S1134AE0DF91CF911F910F910895CF93DF9388EFBA
S1134AF092E00E94D41D809179058C3850F084EFA7
S1134B0092E00E94D41D809179058A580E94E61D86
S1134B1002C00E94E61D88EE92E00E94D41DC9E7FF
S1134B20D5E08E818A5C0E94E61D88EE92E00E94A8
S1134B30D41D8C818F5E0E94E61D88EE92E00E9457
S1134B40D41D9A8185E1891B0E94E61D88EE92E0BE
S1134B500E94D41D8B81865A0E94E61D88EE92E045
S1134B600E94D41D99818EE5891B0E94E61D8F81C8
S1134B70882399F085EE92E00E94D41D80918005EF
S1134B80833029F08E3139F0823039F404C080E367
S1134B900E94752802C00E94E61D85EE92E00E94E4
S1134BA0D41D80918205803129F0803239F0811141
S1134BB00CC008C083E30E94752807C084E30E94E8
S1134BC0752803C085E30E94752885EE92E00E9453
S1134BD0D41D80918105882321F088E30E947528E3
S1134BE003C089E30E94752881EF92E00E94D41DDE
S1134BF0C9E7D5E08B890E94E61D8EEE92E00E9403
S1134C00D41D6F85788989899A890E94E81E8BEE64
S1134C1092E00E94D41D6B857C858D859E8540E045
S1134C200E94251E0E94EE22DF91CF9108951F93CA
S1134C30CF93DF93182FEB0182EE92E00E94D41DF4
S1134C40812F0E94E61D8DE30E947528CE010E94EB
S1134C50C51D0E94E922DF91CF911F9108950F9302
S1134C601F93CF938C01C62F8EE30E947528C80131
S1134C700E94C51D8AE30E9475288C2F0E943C2344
S1134C80CF911F910F910895CF93DF93EC018EEC98
S1134C9092E00E94D41DCE010E94C51D0E94EE2206
S1134CA088EC92E00E94D41D86E50E9475288CE26F
S1134CB00E9475288FE00E94E61D8CE20E947528F0
S1134CC080E80E94E61D0E94EE22DF91CF910895B4
S1134CD04F925F926F927F928F929F92AF92BF9208
S1134CE0CF92DF92EF92FF920F931F93CF93DF93B4
S1134CF0CDB7DEB7A4970FB6F894DEBF0FBECDBF15
S1134D008CE0E4E1F6E0DE01119601900D928A95C3
S1134D10E1F7BE016F5F7F4FCE010D960E947F3990
S1134D208CE30E9475288091F4058830D1F040F41A
S1134D308130D1F188F08230E1F1843081F15EC0BC
S1134D40803241F118F4803189F058C08034B1F1D7
S1134D50803809F44FC052C083EC92E00E94D41D05
S1134D604DC08FEB92E00E94D41D48C08091F6059F
S1134D70882384F089EB92E00E94D41D8091F6058B
S1134D8080FF04C080E30E94752838C081E30E943C
S1134D90752834C085EB92E00E94D41D2FC080EBAF
S1134DA092E00E94D41D2AC08AEA92E00E94D41D97
S1134DB025C084EA92E00E94D41D20C08EE992E0CE
S1134DC00E94D41D8091F60583FF04C083E30E94F2
S1134DD0752814C082FF0AC085FF04C081E30E94C5
S1134DE075280CC080E30E94752808C082E30E94E5
S1134DF0752804C088E992E00E94D41D809141077F
S1134E00282F2170E22E80FF04C0809100068111BA
S1134E1055C04090B5055090B6056090B7057090A8
S1134E20B8050F2EFDE9CF2EF5E0DF2EF02D8E0113
S1134E30075E1F4F5E018DE0A80EB11CF12CF60138
S1134E4061917191819191916F01208531854285A4
S1134E5053850E94733C4801F80160837183828307
S1134E609383F2E0FF120CC0A30192010E94733CF1
S1134E70F8016083718382839383E1101FC002C0B1
S1134E80E11011C0F4012081318142815381F50187
S1134E9060817181828193810E94723CF5016083FB
S1134EA0718382839383F3940C5F1F4FF4E0AF0EFE
S1134EB0B11C23E0F212C3CFEE2029F081E992E085
S1134EC00E94D41D04C08AE892E00E94D41DCE0141
S1134ED00D960E94F4228091410781FF0FC085E85E
S1134EE092E00E94D41D0E94B01D0E94E61D8CE237
S1134EF00E9475280E945A280E94E61D80E892E0CC
S1134F000E94D41D0E94CA380E94E81E8CE20E94AE
S1134F1075286091010670910206809103069091B4
S1134F20040640E00E94251E0E94A10E082F0E9444
S1134F30EC38182F0E94121FF82E802F812B8F29F6
S1134F4059F18BE792E00E94D41DFF2019F080E50F
S1134F500E947528002379F000FF03C088E50E94B1
S1134F60752801FF03C089E50E94752802FF03C06C
S1134F708AE50E947528112379F010FF03C082E5A9
S1134F800E94752811FF03C088E40E94752812FF4F
S1134F9003C083E50E94752880910006882321F0D0
S1134FA08150809300061AC08091F4058C7721F01B
S1134FB08DE18093000603C089E080930006809110
S1134FC0FF05811103C081E08093FF0585E792E02E
S1134FD00E94D41DCE0149960E94F4228091FF05BF
S1134FE0882321F081508093FF053AC08091F40515
S1134FF08C7721F083E18093FF0503C089E08093DF
S1135000FF0580E792E00E94D41D04EF15E0F8014B
S113501087810E94E61D8CE20E947528F801808534
S11350200E94E61D8CE20E947528F80181850E9489
S1135030E61D0E942A2C082F0E945802182F0111E5
S11350401AC0811113C00CC083E50E94752803C0E7
S113505083E40E94752816FF03C086E40E94752825
S11350608EE30E9475280E94E9220CC08CE692E02F
S11350700E94D41DF0CF8CE692E00E94D41D013032
S113508039F7E2CFA4960FB6F894DEBF0FBECDBFBA
S1135090DF91CF911F910F91FF90EF90DF90CF9010
S11350A0BF90AF909F908F907F906F905F904F9044
S11350B0089508958091920490919304981718F09C
S11350C08058891B08958150891B0895E0ECF0E015
S11350D08081826080831092C5001092C400E1EC4C
S11350E0F0E08081886980830895E091910421E053
S11350F02E0F293631F420E004C09091060694FD69
S11351000FC0909190049217C1F3F0E0ED5DF94F58
S1135110808320939104E1ECF0E0808180628083BD
S113512008951F920F920FB60F9211248F939F939D
S1135130EF93FF9380919004E82FF0E0ED5DF94F39
S113514090819093C6008F5F893609F480E0809344
S1135150900490919104891305C0E1ECF0E0808102
S11351608F7D8083FF91EF919F918F910F900FBE60
S11351700F901F9018959091920480919304981722
S113518061F0E92FF0E0E457F94F80819F5F913897
S113519009F490E09093920408958FEF08951F927C
S11351A00F920FB60F9211242F933F934F935F9357
S11351B06F937F938F939F93AF93BF93EF93FF93DB
S11351C0E091C600E132A1F018F4E83131F014C0E6
S11351D0EF3331F0EE3741F00FC00E945F157EC00F
S11351E081E00E94053A7AC082E00E94053A76C0C6
S11351F088E00E94053A72C0EE230CF05EC08E2F48
S113520090E0FC01E458F109ED31F10508F066C0C5
S1135210EE52FF4F0C94F54080E20E94053A5EC0C6
S11352208091F40585FF5AC080E40E94053A56C077
S11352309FB7F894809121068160809321069FBFD7
S11352404DC081E00E94543C49C082E00E94543C1D
S113525045C084E00E94543C41C088E00E94543C14
S11352603DC080E10E94543C39C080E20E94543C1D
S113527035C080E40E94543C31C080E80E94543C14
S11352802DC081E00E945D3C29C082E00E945D3C0B
S113529025C084E00E945D3C21C088E00E945D3C02
S11352A01DC080E10E945D3C19C080E20E945D3C0B
S11352B015C080E40E945D3C11C0A091930481E07C
S11352C08A0F813809F480E090919204891731F0B3
S11352D0B0E0A457B94FEC9380939304FF91EF91FE
S11352E0BF91AF919F918F917F916F915F914F91FA
S11352F03F912F910F900FBE0F901F9018958091A2
S113530093048093920408950F931F93CF93C82F0F
S11353108B010E94D42221E5C29FC001112440E5E3
S113532050E0B8019D5F0E94A402CF911F910F919C
S1135330089540E550E0BC018EEA93E00E94A40287
S113534008950F931F93CF93C82F8B010E94D422EB
S11353502DE0C29FC00111244CE050E0B8019E5FD3
S11353600E94A402CF911F910F9108956AE080E0FA
S113537090E00E94850245E550E06DE077E081E031
S113538090E00E94A40208950F931F93CF93DF939C
S1135390CDB7DEB72C970FB6F894DEBF0FBECDBFE6
S11353A0082F80FF0BC085E5E3E3F4E0ADE0B7E050
S11353B005900D928A95E1F70E94B62901FF11C06C
S11353C0FE0131968CE0DF011D928A95E9F710E029
S11353D0BE016F5F7F4F812F0E94A1291F5F18308C
S11353E0B9F702FF14C060E080E093E00E948502F8
S11353F060E081E093E00E94850260E081E593E053
S11354000E94850260E082E593E00E94850203FF2A
S11354100AC060E08EEA93E00E94850260E08FEAB1
S113542093E00E9485022C960FB6F894DEBF0FBE5F
S1135430CDBFDF91CF911F910F9108951F93CF930B
S1135440DF93182FEB0181E5189FB00111247D5FD4
S113545040E550E0CE010E94E902892B39F418821C
S1135460BE01812F0E94842980E001C081E0DF9188
S1135470CF911F910895CF93DF93EC0140E550E065
S11354806EEA73E00E94E902892B31F41882CE019E
S11354900E94992980E001C081E0DF91CF910895B5
S11354A01F93CF93DF93182FEB018DE0189FB0016A
S11354B011247E5F4CE050E0CE010E94E902892B6A
S11354C059F48CE0FE0111928A95E9F7BE01812F0F
S11354D00E94A12980E001C081E0DF91CF911F915A
S11354E0089580E090E00E947D028A3069F445E5E9
S11354F050E061E070E08DE097E00E94E90221E075
S1135500892B19F420E001C020E0822F0895CF9266
S1135510DF92EF92FF92CF93DF93C82F6A017B0152
S113552020E030E0A901C701B6010E94683D88234C
S11355300CF406C1C436A0F0ECE9EC0FE33020F023
S1135540EA3008F00BC1FEC0F0E0EE0FFF1FEE0FD3
S1135550FF1FE35FF84FC082D182E282F382ECC086
S1135560C701B6010E94AD400E94EB3D8C2F90E034
S11355708132910508F0E8C0FC01E151FF4F0C9421
S1135580F540633008F4E2C060933D07D5C06093F2
S11355904007D2C060933E070E94B72FCDC06093EE
S11355A03F070E94B72FC8C0662331F0E2E5F7E059
S11355B0808184608083C0C0E2E5F7E080818B7FD6
S11355C08083BAC0662331F0E2E5F7E0808180642D
S11355D08083B2C0E2E5F7E080818F7B8083ACC03A
S11355E0662331F0E2E5F7E080818068808305C0BE
S11355F0E2E5F7E080818F77808380E00E94FA1EE5
S11356009BC06093410798C0C0924207D092430761
S1135610E0924407F09245078FC0C0924607D092AB
S11356204707E0924807F092490786C0662331F0A5
S1135630E2E5F7E080818160808305C0E2E5F7E080
S113564080818E7F80830E945E3976C0662341F01C
S11356508091520784FF7CC08062809352076CC0A3
S1135660E2E5F7E080818F7D808366C0662331F0B8
S1135670E2E5F7E080818860808305C0E2E5F7E039
S11356808081877F80830E94890E56C0662331F013
S1135690E2E5F7E08081806180834EC0E2E5F7E0D7
S11356A080818F7C808348C06093530745C0C0923B
S11356B05407D0925507E0925607F09257073CC022
S11356C0C0925807D0925907E0925A07F0925B07AC
S11356D033C0862F90E090935D0780935C072CC0C5
S11356E0C0925E07D0925F07E0926007F092610774
S11356F023C0C0924A07D0924B07E0924C07F09225
S11357004D070E943C2C18C0C0924E07D0924F0700
S1135710E0925007F09251070E943C2C0DC0662382
S113572031F0E2E5F7E080818260808305C0E2E544
S1135730F7E080818D7F80830E94B62980E058C085
S113574084E056C083E054C083E052C086E050C079
S11357508AE04EC083E04CC083E04AC0E2E9EC0F2B
S1135760E33070F0EA30B0F388E88C0F8330A0F0B7
S11357708A3090F38EE78C0F833048F183E038C091
S1135780F0E0EE0FFF1FEE0FFF1FE75EF84FC08241
S1135790D182E282F382D0CFC82FD0E0CC0FDD1FBC
S11357A0CC0FDD1FCB5DD84F20E030E040E752E462
S11357B0C701B6010E94CA3F20E030E040E752E44E
S11357C00E94CA3F688379838A839B83B5CFE82F7D
S11357D0F0E0EE0FFF1FEE0FFF1FEF5CF84FF7FA3C
S11357E0F094F7F8F094C082D182E282F382A4CFDD
S11357F0DF91CF91FF90EF90DF90CF9008950E94BA
S1135800712A811108C087E00E943C238FEF0E9417
S1135810C4290E94B6230895882321F0813021F001
S113582080E1089584E0089588E00895882321F0B4
S1135830813021F080E8089580E2089580E408959D
S1135840882321F0813021F080E1089582E00895D9
S113585084E008958091B000882324F42D9904C035
S113586081E0089580E0089582E00895E0EBF0E09F
S113587080818F7780830895239A83E08093B0009A
S113588084E08093B100259A20914E0730914F0710
S1135890409150075091510760914A0770914B070E
S11358A080914C0790914D070E94723C9B01AC0182
S11358B060E070E08EE793E40E94723D609394048C
S11358C07093950480939604909397040E94362CC9
S11358D008958093B300811106C0E0EBF0E080816D
S11358E08F7780830895E0EBF0E080818068808387
S11358F008954F925F926F927F928F929F92AF9290
S1135900BF92CF92DF92EF92FF922B013C018090E5
S11359104E0790904F07A0905007B0905107C09049
S11359204A07D0904B07E0904C07F0904D07A70131
S11359309601C501B4010E948A3F8823CCF460918A
S1135940FD0570E080E090E00E941C3E2AE037ED07
S113595043E25CE30E94CA3FA30192010E94CA3F52
S11359602B013C01A70196010E948A3F882354F031
S1135970C0920106D0920206E0920306F092040659
S11359808FEF47C0A5019401C301B2010E94683D95
S11359901816E4F020E030E0A901C301B2010E942E
S11359A0683D811109C010920106109202061092FE
S11359B00306109204062DC08092010690920206FE
S11359C0A0920306B092040681E023C0409201062F
S11359D0509202066092030670920406A501940197
S11359E0C301B2010E94723C209194043091950449
S11359F040919604509197040E94CA3F0E94573EDA
S1135A0020E030E040E85FE30E94733C0E94EB3DFD
S1135A10862FFF90EF90DF90CF90BF90AF909F9034
S1135A208F907F906F905F904F9008959091F505BF
S1135A30911123C081110BC010920106109202062D
S1135A4010920306109204060E94362C14C0803172
S1135A5011F42D980AC02D9A9091520791FF05C018
S1135A60803219F440E050E0BA01CB01BA010E943F
S1135A70792C0E94692C1092FF050895CF92DF9231
S1135A80EF92FF92CF939091F405923051F06A0116
S1135A907B01C82F0E94D422B701A6018C2F0E943B
S1135AA0162DCF91FF90EF90DF90CF9008958091C5
S1135AB0520782FF02C0289A01C02898E2EDF4E060
S1135AC08091CE04868780913D0790E00297092E4D
S1135AD0000CAA0BBB0B689412F8B695A795979582
S1135AE087951694D1F781958587EFE6F0E080815C
S1135AF0826080830895EFE6F0E080818D7F80836B
S1135B00E1E8F0E08081887F816080831092CC049A
S1135B10809140078F3F49F490912006911105C070
S1135B209091F405903881F404C09091F405943078
S1135B3059F090E00E9483168091520782FD02C0C2
S1135B40289A0895289808958091520782FFFACFE1
S1135B50F7CF1F920F920FB60F9211242F933F93FA
S1135B604F935F936F937F938F939F93AF93BF9361
S1135B70CF93DF93EF93FF938091CC048111CEC137
S1135B808BB1E2EDF4E09785907E8F71892B8BB910
S1135B908BB1837E9685892B8BB9858586BD82E002
S1135BA085BD81E08093CC04789481A192A1892B56
S1135BB009F0A7C08091D1049091D004981709F4FA
S1135BC090C0E091D104A2EDB4E087E0E89FF00139
S1135BD01124EB50FB4F9296FC93EE9391978281A4
S1135BE093819093890080938800808191815D9650
S1135BF09C938E935C9784815E969C915E97981794
S1135C0049F1ED018E8F90E0880F991FDC01AA0FF6
S1135C10BB1FAA0FBB1FAA0FBB1F8A0F9B1FDC0150
S1135C20A15EBA4FB8A3AF8F1C968D919D910D9034
S1135C30BC91A02DB695A795979587958887998748
S1135C40AA87BB878C839D83AE83BF838883998314
S1135C50AA83BB83A2EDB4E05F96CD91DC919097CB
S1135C6098898091CD0489271F968C931F9748812A
S1135C7059816A817B81058004C076956795579523
S1135C8047950A94D2F750964D935D936D937C9308
S1135C9053974C815D816E817F81058004C0769528
S1135CA06795579547950A94D2F754964D935D930B
S1135CB06D937C935797488559856A857B850580C4
S1135CC004C076956795579547950A94D2F75896E8
S1135CD04D935D936D937C935B9786810E94692CB1
S1135CE010C00E947B2DE091F104F091F2048189AF
S1135CF0882319F080E00E94692C84E00E94053A10
S1135D000DC180910706813011F40E94181FE2ED45
S1135D10F4E0168640815181628173818089918982
S1135D20A289B389840F951FA61FB71F808391830F
S1135D30A283B383078CF0A1E02D44855585668545
S1135D407785481759076A077B0770F5C2EDD4E0D9
S1135D5024E02E874485558566857785841B950BBD
S1135D60A60BB70B88839983AA83BB83808985FF9D
S1135D700EC0C4E1D6E088819981AA81BB810197D4
S1135D80A109B10988839983AA83BB830DC0C4E1A7
S1135D90D6E088819981AA81BB810196A11DB11D9C
S1135DA088839983AA83BB83C2EDD4E04C815D814F
S1135DB06E817F818C899D89AE89BF89840F951FEF
S1135DC0A61FB71F8C839D83AE83BF8344855585EF
S1135DD066857785481759076A077B0768F52E8516
S1135DE028602E874485558566857785841B950BA9
S1135DF0A60BB70B8C839D83AE83BF83808986FFFC
S1135E000EC0C4E1D6E08C819D81AE81BF81019733
S1135E10A109B1098C839D83AE83BF830DC0C4E106
S1135E20D6E08C819D81AE81BF810196A11DB11DFB
S1135E308C839D83AE83BF83C2EDD4E048855985AE
S1135E406A857B85888D998DAA8DBB8D840F951F5E
S1135E50A61FB71F88879987AA87BB87448555855E
S1135E6066857785481759076A077B0768F52E8585
S1135E7020612E874485558566857785841B950B1F
S1135E80A60BB70B88879987AA87BB878089882345
S1135E9074F4E4E1F6E080859185A285B3850197E9
S1135EA0A109B10980879187A287B3870DC0E4E176
S1135EB0F6E080859185A285B3850196A11DB11D6B
S1135EC080879187A287B3878091F405843039F461
S1135ED0E2EDF4E096858091FA0589238687E2ED68
S1135EE0F4E0848D958D0197958F848F892B69F4C7
S1135EF01092F4041092F3048091D1048F5F809384
S1135F00D104863011F41092D104E2EDF4E09685C8
S1135F108091CE04892786871092CC04FF91EF915B
S1135F20DF91CF91BF91AF919F918F917F916F91AD
S1135F305F914F913F912F910F900FBE0F901F9043
S1135F4018951F920F920FB60F9211248F939F935F
S1135F508BB19091CE049C71837E892B8BB915BC37
S1135F609F918F910F900FBE0F901F901895EF92F5
S1135F70FF920F931F93CF93DF931092CE0410924E
S1135F80CD04C0E0D0E00DE017E0EC2EFC2EF801CB
S1135F9081A990E00C2E02C0959587950A94E2F7AA
S1135FA080FF08C08C2F0E940C2C9091CE04892B6A
S1135FB08093CE04F80182A990E002C0959587955C
S1135FC0FA94E2F780FF08C08E2D0E94162C90915F
S1135FD0CD04892B8093CD042196C330D105A9F635
S1135FE0DF91CF911F910F91FF90EF900895CF9380
S1135FF0DF930E947B2D80E3E8E9F4E0DF011D924A
S11360008A95E9F7C2EDD4E083E2FE0111928A9504
S1136010E9F71092CB041092CA041092D1041092A2
S1136020D00481E08093CF041092CC040E94B72F57
S11360308091CD048F878BB1837E9091CE04892B80
S11360408BB98BB18F719091CD04892B8BB9DF9172
S1136050CF9108958AB18C618AB9209A8AB1806EF1
S11360608AB9E1E8F0E080818F7E80838081886056
S11360708083E0E8F0E080818C7F808380818F7072
S11360808083EEE6F0E08081887F808314BC15BCB9
S11360908081816080830895CF93DF93C091CA0487
S11360A0D091CB042097A9F0E8E9F4E081818160E4
S11360B081836789708D818D928D9B01AC010E94D3
S11360C0CA3F6A8B7B8B8C8B9D8B1092CB04109276
S11360D0CA04DF91CF9108952F923F924F925F921D
S11360E06F927F928F929F92AF92BF92CF92DF92E4
S11360F0EF92FF920F931F93CF93DF93CDB7DEB749
S1136100EA970FB6F894DEBF0FBECDBF8091F805B5
S113611080FF02C00C94B13822E02AAF29AFE3C754
S11361208091CA049091CB04892B09F03AC38091E1
S1136130F80582FF07C00E941A199093CB0480933C
S1136140CA0406C00E9423199093CB048093CA0406
S11361500091CA041091CB040115110511F40C949B
S1136160B138F09099048F2D8170F0FE03C0109225
S11361709904F6C0A8E9B4E09C919F5F953009F0BA
S1136180892FE8E9F4E0808390E0FC01EE0FFF1F23
S11361909F01220F331F220F331F220F331FE20FE1
S11361A0F31FE15EFA4FF093C904E093C804D801E9
S11361B050962C915097208B9801245F3F4F4D911E
S11361C05D916D917D91440F551F661F771F440F9C
S11361D0551F661F771F440F551F661F771F419376
S11361E0519361937193A217B30749F7880F991FCD
S11361F0FC01EE0FFF1FEE0FFF1FEE0FFF1F8E0FB0
S11362009F1F9C01215E3A4FF80184859585A685E0
S1136210B785880F991FAA1FBB1F880F991FAA1F34
S1136220BB1F880F991FAA1FBB1FF901848795877D
S1136230A687B787D8011C966D917D918D919C910D
S11362401F970E941A3E60939E0470939F0480934C
S1136250A0049093A104F801268D378D40A151A18B
S11362600E94723D9B01AC016093A2047093A3044D
S11362708093A4049093A50460E070E080EA9FE317
S11362800E94723D6093A6047093A7048093A804AF
S11362909093A90410929A0410929B0410929C0467
S11362A010929D048091F80581FD02C0F3FE20C088
S11362B06091B7047091B8048091B9049091BA04C4
S11362C06093AF047093B0048093B1049093B204CC
S11362D09B01AC010E94CA3FD80152966D937D93F5
S11362E08D939C9355978F2D877F809399040FC02E
S11362F0F80162897389848995890E946940609351
S1136300AF047093B0048093B1049093B2040091ED
S1136310C8041091C904D80151961C92E2E5F7E033
S1136320808181FF1DC0E091CA04F091CB04818972
S113633085FF16C022A533A544A555A560E070E0ED
S113634080E89FE30E94723D6093C3047093C40489
S11363508093C5049093C604E1E0D8015196EC9370
S11363601092AB041092AC041092AD041092AE04DF
S11363700091CA041091CB04D8015A968D909D9037
S1136380AD90BC905D97A501940160E070E080E061
S11363909FE30E94723D69837A838B839C838091FF
S11363A0F80581FF55C0B2E0B093AA04F801468C09
S11363B0578C60A071A0C288D388E488F588A701AF
S11363C0960169817A818B819C810E94CA3F9B01DD
S11363D0AC01C301B2010E94723C69837A838B834E
S11363E09C8320E030E0A9010E94683D8823DCF40E
S11363F0A5019401C501B4010E94733CA30192015B
S11364000E94CA3F9B01AC01C701B6010E94723CC5
S11364100E9469406093B7047093B8048093B904F0
S11364209093BA04B9C129813A814B815C8120934C
S1136430AB043093AC044093AD045093AE0410927B
S1136440B7041092B8041092B9041092BA04A4C10B
S11364501092AA04D8015E964D915D916D917C9144
S113646091974093BB045093BC046093BD04709314
S1136470BE0482FF0DC01092B7041092B8041092AB
S1136480B9041092BA0419861A861B861C8610C099
S11364900E94331969877A878B879C870E94694099
S11364A06093B7047093B8048093B9049093BA04CA
S11364B08091CA049091CB040E9454194B015C0151
S11364C09B01AC010E94CA3F6D837E838F839887B2
S11364D00091CA041091CB04F801C68CD78CE0A0BB
S11364E0F1A04288538864887588A30192010E94B0
S11364F0683D88230CF079C02D813E814F815885F9
S1136500C301B2010E94723C29813A814B815C81B2
S11365100E94CA3F9B01AC01C701B6010E94723CB4
S11365206093BB047093BC048093BD049093BE0439
S113653020E030E0A9010E94683D181694F1F2E0D1
S1136540F093AA04D8015A96CD90DD90ED90FC907A
S11365505D97A7019601C701B6010E94733CF8013B
S1136560268D378D40A151A10E94CA3F9B01AC01E9
S1136570D80152966D917D918D919C9155970E9471
S1136580723C0E9469406093B7047093B80480938E
S1136590B9049093BA048091990488608093990413
S11365A0FBC029853A854B855C856D817E818F8111
S11365B098850E94723C29813A814B815C810E94BA
S11365C0CA3F6093BF047093C0048093C104909346
S11365D0C2048092B3049092B404A092B504B09221
S11365E0B604B3E0B093AA04D7C029853A854B8595
S11365F05C85C301B2010E94723C29813A814B81BE
S11366005C810E94CA3FA70196010E94733C20E06E
S113661030E040E05FE30E94CA3F2B013C0120E0F0
S113662030E0A9010E948A3F18160CF09DC0A30116
S11366309201C701B6010E948A3F18160CF090C05F
S113664029853A854B855C856D817E818F8198850E
S11366500E94723C29813A814B815C810E94CA3F2D
S11366609B01AC016093BF047093C0048093C10488
S11366709093C204C301B2010E948A3F1816F4F534
S11366808092B3049092B404A092B504B092B6047C
S1136690F8014288538864887588A30192016D814A
S11366A07E818F8198850E94683D811104C0F1E04C
S11366B0F093AA0471C0A30192016D817E818F8140
S11366C098850E94723C29813A814B815C810E94A9
S11366D0CA3F9B01AC016091BB047091BC048091E2
S11366E0BD049091BE040E94723C6093BB047093FD
S11366F0BC048093BD049093BE044EC04092BB047E
S11367005092BC046092BD047092BE044092BF04D7
S11367105092C0046092C1047092C204D8015A9687
S1136720CD90DD90ED90FC905D97A7019601C70197
S1136730B6010E94733CA30192010E94CA3F2985BD
S11367403A854B855C850E94733C0E946940609346
S1136750B3047093B4048093B5049093B6041CC03E
S1136760B2E0B093AA0418C01092BB041092BC0407
S11367701092BD041092BE048091B7049091B804A5
S1136780A091B904B091BA048093B3049093B40473
S1136790A093B504B093B6048091F8058860809303
S11367A0F805E091D0042E2F30E03AA729A737E06E
S11367B0E39FF0011124EB50FB4FA8E9B4E08C9166
S11367C08483E091CA04F091CB04FC8FEB8FF68DA7
S11367D0FBA7AB8DBC8D5F96BC91BCA7EB8DFC8DEC
S11367E0F0A1FDA7AB8DBC8D9196BC91BEA7209165
S11367F0A6043091A7044091A8045091A9046BA564
S11368007CA58F2F9B2F0E94723C69A37AA38BA334
S11368109CA320E030E0A9010E94683D882324F471
S113682019A21AA21BA21CA22091B3043091B40491
S11368304091B5045091B6042F8B388F498F5A8FED
S11368403091BB043D8F4091BC044E8F5091BD04E8
S11368505F8F8091BE0488A39091BF049DA3A091F3
S1136860C004AEA3B091C104BFA3E091C204E8A7E1
S11368701091AA04F091AB04FB8B2091AC042C8BF7
S11368803091AD043D8B4091AE044E8B8091B704A2
S11368909091B804A091B904B091BA048FA798ABB1
S11368A0A9ABBAAB2DA13EA14FA15E2F6D8D7E8DFC
S11368B08F8D98A10E94683D811102C08AAD01C0EC
S11368C081E03BA42CA45DA44EA49EE399830F2EE7
S11368D0F3EC6F2EF02D0F2EFEE27F2EF02D09E348
S11368E0812C912C5401AEE3AD83B3ECB987EEE275
S11368F0ED87F9E3FE878FABF32C372CE22C262CA3
S1136900D52CC42C113009F41FC108F496C01330DF
S113691009F057C1AB8DBC8D5A962D913D914D9187
S11369205C915D976981722D832D902F0E94CA3FDF
S11369306F87788B898B9A8B4090AF045090B0040A
S11369406090B1047090B2042F89388D498D5A8DAE
S1136950C301B2010E94723C9B01AC016F8578892E
S113696089899A890E948A3F8823A4F12D8D3E8DBE
S11369704F8D58A16BA57CA58DA59EA50E94723C48
S11369809B01AC010E94733C6B017C012F89388D03
S1136990498D5A8DC301B2010E94733C9B01AC0125
S11369A0C701B6010E94723D6983272E382E092F34
S11369B02F89388D498D5A8D2093AF043093B004BC
S11369C04093B1045093B204FD8CEE8CDF8CC8A0CC
S11369D018AD8EC120E030E040E05FE36F85788938
S11369E089899A890E94CA3F9B01AC01C301B20103
S11369F00E94723C2981322D432D502F0E94CA3FA0
S1136A009B01AC016F2D7E2D8D2D9C2D0E94723C1F
S1136A10F62EE72ED82EC92E2F85388949895A8912
S1136A20C301B2010E94723C6093AF047093B0043E
S1136A308093B1049093B2045BC1AB8DBC8D5A9624
S1136A402D913D914D915C915D976981722D832DBE
S1136A50902F0E94CA3F6F87788B898B9A8B4090C6
S1136A60AF045090B0046090B1047090B20420E080
S1136A7030E040E05FE30E94CA3FA30192010E941C
S1136A80733C2981322D432D502F0E94CA3F9B0114
S1136A90AC016F2D7E2D8D2D9C2D0E94723CF62E07
S1136AA0E72ED82EC92E262F372F482F592F6D8D1C
S1136AB07E8D8F8D98A10E948A3F1816A4F52D8D86
S1136AC03E8D4F8D58A16BA57CA58DA59EA50E94DA
S1136AD0723C9B01AC010E94733C6B017C01A301DD
S1136AE092016F89788D898D9A8D0E94733C9B01E8
S1136AF0AC01C701B6010E94723D6983272E382E6E
S1136B00092F2F89388D498D5A8D2093AF043093E6
S1136B10B0044093B1045093B2041FA9FD8CEE8CD1
S1136B20DF8CC8A0E5C0A30192016F8578898989AB
S1136B309A890E94733C6093AF047093B00480936D
S1136B40B1049093B204D4C02F89388D498D5A8DE5
S1136B506981722D832D902F0E94CA3F9B01AC0145
S1136B606F2D7E2D8D2D9C2D0E94723C462E572E0E
S1136B70682E792E262F372F482F592F6DA17EA1ED
S1136B808FA198A50E948A3F18160CF0ADC02DA1C4
S1136B903EA14FA158A56F2D7E2D8D2D9C2D0E94B9
S1136BA0723C2F89388D498D5A8D0E94723D6983BC
S1136BB0272E382E092FFDA0EEA0DFA0C8A419AD02
S1136BC097C0AB8DBC8D5A962D913D914D915C91A2
S1136BD05D976981722D832D902F0E94CA3F6F8724
S1136BE0788B898B9A8B4090AF045090B00460905E
S1136BF0B1047090B204A30192010E94683D8823FD
S1136C000CF03FC020E030E040E05FE36F8578891E
S1136C1089899A890E94CA3F9B01AC01C301B201D0
S1136C200E94723C2981322D432D502F0E94CA3F6D
S1136C309B01AC016F2D7E2D8D2D9C2D0E94723CED
S1136C406BAB7CAB8DAB9EAB2B893C894D895E894C
S1136C500E948A3F1816ACF42F85388949895A89CD
S1136C60C301B2010E94723C6093AF047093B004FC
S1136C708093B1049093B204FBA8ECA8DDA8CEA83D
S1136C8037C02B893C894D895E896F2D7E2D8D2DD2
S1136C909C2D0E94723C9B01AC010E94733C6B01D1
S1136CA07C012FA538A949A95AA9C301B2010E94A0
S1136CB0733C9B01AC01C701B6010E94723D69831C
S1136CC0272E382E092F2FA538A949A95AA9209370
S1136CD0AF043093B0044093B1045093B204FB88E2
S1136CE0EC88DD88CE8804C0F42CE52CD62CC72C87
S1136CF02981322D432D502FC501B4010E94733CCC
S1136D004B015C019B01AC016D8179858D859E856C
S1136D100E948A3F18166CF4A50194016D8179854F
S1136D208D859E850E94723C6983272E382E092FFB
S1136D3029C029A13AA14BA15CA16F2D7E2D8D2DD7
S1136D409C2D0E948A3F18163CF03F2C2E2C5D2C63
S1136D504C2C1093AA0429C02EE333EC4EE259E3E1
S1136D606D8179858D859E850E94733C6D837987BD
S1136D708D879E87A50194010E94723C6983272E0A
S1136D80382E092F2B893C894D895E896F2D7E2DE4
S1136D908D2D9C2D0E948A3F18160CF4B3CD3F2CE8
S1136DA02E2C5D2C4C2C1093AA04E091C804F09175
S1136DB0C90481898111BFC18091F80583FDCBC1CC
S1136DC014C00E94792C8093C7040AC01092010653
S1136DD01092020610920306109204061092C70441
S1136DE08091F805877F8093F80509A51AA5000FFF
S1136DF0111F000F111F000F111F49A55AA5041BD5
S1136E00150B0B501B4F8091C704D80116968C9319
S1136E102091A2043091A3044091A4045091A504AC
S1136E20632D722D852D942D0E94CA3F69837A8328
S1136E308B839C830E94513D6D837E838F839887CF
S1136E4060919E0470919F048091A0049091A1048C
S1136E500E94513D69877A878B879C872D813E816B
S1136E604F8158850E94723C0E94EB3D6B017C016E
S1136E70F80171836083672B41F48091F80581FFE9
S1136E8004C081608093F8056CC120919A0430910C
S1136E909B0440919C0450919D04C501B4010E943F
S1136EA0733C4B015C0129813A814B815C8169858A
S1136EB07A858B859C850E94723C9B01AC01C5013F
S1136EC0B4010E94723D4B015C0120EC31EE44E6BA
S1136ED05CE40E94CA3F0E94513D0E94EB3D6D3725
S1136EE071058105910580F4E9A5FAA5EE0FFF1F50
S1136EF0EE0FFF1FEE0FFF1F29A53AA5E21BF30BB0
S1136F00EB50FB4F15825CC06A3F7105810591050A
S1136F1088F4E9A5FAA5EE0FFF1FEE0FFF1FEE0F91
S1136F20FF1F49A55AA5E41BF50BEB50FB4F51E09D
S1136F30558327C0643FA1E07A078105910588F451
S1136F40E9A5FAA5EE0FFF1FEE0FFF1FEE0FFF1FBF
S1136F5029A53AA5E21BF30BEB50FB4F32E0358336
S1136F6010C0E9A5FAA5EE0FFF1FEE0FFF1FEE0FED
S1136F70FF1F49A55AA5E41BF50BEB50FB4F53E04B
S1136F805583E9A5FAA5EE0FFF1FEE0FFF1FEE0FC5
S1136F90FF1FA9A5BAA5EA1BFB0BEB50FB4F2581EC
S1136FA0022E04C096958795779567950A94D2F733
S1136FB0A60102C0440F551F2A95E2F7518340836E
S1136FC06115710551E08507910588F4E9A5FAA5D5
S1136FD0EE0FFF1FEE0FFF1FEE0FFF1FA9A5BAA5AF
S1136FE0EA1BFB0BEB50FB4F7383628313C089A531
S1136FF09AA5880F991F880F991F880F991FE9A5D3
S1137000FAA58E1B9F0BFC01EB50FB4F2FEF3FEFBC
S1137010338322838091CF048093D0048F5F8630A2
S113702019F08093CF0402C01092CF04E091CA04F7
S1137030F091CB04832D922DA52DB42D868F978F9F
S1137040A0A3B1A38D819E81AF81B88580939E0456
S113705090939F04A093A004B093A10429813A8142
S11370604B815C81BC01CD010E94723CA50194015D
S11370700E94CA3F60939A0470939B0480939C047B
S113708090939D042091AB043091AC044091AD04E5
S11370905091AE04632D722D852D942D0E94683D70
S11370A0811123C0752C532C20E030E0A901652DFB
S11370B0722D872D942D0E948A3F181634F4E4EF24
S11370C0F5E08481816084834CC08091F80582FF5F
S11370D004C081608093F80544C01092CB041092E0
S11370E0CA040E94061991E098AF9091D10480914E
S11370F0CF04981315C835C0AB8DBC8D9E96CD902A
S1137100DD90ED90FC90D1972091C3043091C4049C
S11371104091C5045091C6046091AF047091B004CD
S11371208091B1049091B2040E94CA3FA7019601D4
S11371300E94CA3F46CEEB8DFC8D8189807309F491
S113714045CEDACFAB8DBC8D9E966D917D918D91A0
S11371509C91D19736CEEB8DFC8D8189807391F70C
S113716035CEEA960FB6F894DEBF0FBECDBFDF91E1
S1137170CF911F910F91FF90EF90DF90CF90BF9030
S1137180AF909F908F907F906F905F904F903F90C3
S11371902F9008958091F4058C7749F06091AF04A5
S11371A07091B0048091B1049091B204089560E0AC
S11371B070E0CB01089587B1887F87B988B1876073
S11371C088B9ECE6F0E0808187608083E8E6F0E04F
S11371D0808182608083089596B19095892F87700D
S11371E059F091FF02C082E001C080E090FD81600F
S11371F092FF03C08460089580E008951F920F9267
S11372000FB60F9211242F933F934F935F936F9375
S11372107F938F939F93AF93BF93CF93EF93FF93FA
S11372200E94EC38C82F882389F080FD0E945F15E6
S1137230C2FF05C080910606826080930606C1FFE6
S113724005C080910606886080930606FF91EF9141
S1137250CF91BF91AF919F918F917F916F915F91EA
S11372604F913F912F910F900FBE0F901F90189543
S113727080E008950F931F93CF938C01C0E0B80171
S11372808C2F0E941E2A811107C0F801108267E02A
S1137290C8010E942F260BC0F8018081882339F091
S11372A0C8010E944D03682FC8010E942F26CF5F9A
S11372B0C23029F7CF911F910F9108950E94D422D3
S11372C0109200060895CF93DF93C62FD0E0CC0F21
S11372D0DD1FCC0FDD1F8C0F9D1FFC0160817181B0
S11372E0828193810E941C3EC35FD84F28813981DB
S11372F04A815B810E94723DDF91CF910895EF92A4
S1137300FF920F931F93CF937B018C01C0E06C2FEE
S1137310C7010E946339F80161937193819391933A
S11373208F01CF5FC33099F7CF911F910F91FF90D9
S1137330EF900895CF92DF92EF92FF92CF93DF9375
S1137340EC01C880D980EA80FB8020E030E0A9010C
S1137350C701B6010E948A3F18160CF446C020915A
S11373603107309132074091330750913407C701F8
S1137370B6010E94683D8823D4F1CC80DD80EE8084
S1137380FF8020E030E0A901C701B6010E948A3FD6
S113739018167CF120913507309136074091370754
S11373A050913807C701B6010E94683D88231CF13B
S11373B0C884D984EA84FB8420E030E0A901C701B1
S11373C0B6010E948A3F1816C4F020913907309103
S11373D03A0740913B0750913C07C701B6010E9410
S11373E0683D881F8827881F09C081E007C081E0A5
S11373F005C081E003C081E001C081E0DF91CF914D
S1137400FF90EF90DF90CF9008959FB7F89420916C
S11374100606822B809306069FBF08958F929F9243
S1137420AF92BF92CF92DF92EF92FF920F931F938E
S1137430CF93DF93CDB7DEB729970FB6F894DEBFAD
S11374400FBECDBF8C0181E08983F8018181833433
S113745011F130F4882361F0843209F059C01BC063
S11374608A3451F08835B9F0873409F051C013C01B
S11374700E94B123F12CEEC18091F4058F7D09F0B7
S113748073C1F80182818D3309F072C1C8010E9471
S11374904D03F82EDFC1F801928191116EC183343E
S11374A0B1F018F4843231F06DC1873461F088355D
S11374B019F168C18091F4058871F82E09F064C14E
S11374C00E94B623C7C10E947525F12CC3C1F09058
S11374D0F405F2E0FF1207C00E945F1585E00E94E8
S11374E06123F12CB7C1F11053C182E08093F405FC
S11374F084E00E946123AEC18091F405813009F0DB
S11375004BC183E00E9461231092F405F12CA2C1C7
S11375109091F405923008F041C1893409F445C0D2
S113752028F4833261F0883491F0ADC0823509F4D7
S11375305FC0833549F18E3409F0A5C084C0F801D9
S1137540828181112FC10E94FC24F12C83C180917E
S1137550520784FF2CC184E08093F405F8018281F2
S113756081112AC10E94D214F090F505F11029C1AD
S11375701092F4050E947B2DF801828181116AC169
S1137580C8010E943A3966C1F80182818C3409F03D
S11375901AC18381803509F01BC1848181111DC109
S11375A080E80E94053AF12C55C182E08983F801F4
S11375B08281811108C0C8010E943B2AC8010E942F
S11375C04426F12C47C18D3309F00CC183E0F80146
S11375D0E80FF11D9081DF0113979C938F5F9081D9
S11375E09111F5CF8983C8010E949929F12C32C1E8
S11375F0F8018281833509F0FAC08381843509F06A
S1137600FBC084818D3309F0FCC086818111FEC0EA
S11376108581843231F08A3261F0833209F0FBC013
S113762004C081E00E94C42907C082E00E94C429EA
S113763003C08FEF0E94C42989E00E9461230E9445
S11376405F15F12C07C182E08983F80182818111E1
S113765015C0F12CB8018F2D0E941E2A811104C07F
S113766087E00E943C2304C0B8018F2D0E94172696
S1137670F394F2E0FF12EECFF12CECC09111D0C0E4
S1137680FF24F39401C0F12CAE014E5F5F4FBE01A5
S11376906F5F7F4FC8010E948315882309F4C4C01B
S11376A0898121E0280F2983F801E80FF11D8081E9
S11376B08D3309F0BDC0FF2031F1422F30E0842F1B
S11376C090E0D801A80FB91F5C91821B930BF801BD
S11376D0E80FF91F50834F5F8C918111F0CF4983DC
S11376E0C8010E944D03F82E8111B4C06A817B81C8
S11376F08C819D810E94AD400E94EB3D862FB80194
S11377000E948429A7C0AE014A5F5F4FBE016F5F2C
S11377107F4FC8010E948315882309F48EC0898194
S1137720F801E80FF11D808181118BC08A809B8054
S1137730AC80BD8020E030E04FE753E4C501B401E4
S11377400E948A3F18160CF481C0CE80DF80E88442
S1137750F984C501B4010E94EB3D862FB701A6014F
S11377600E94872AF82E76C06894FF24F3F872C02A
S11377700F2EF3E0FF2EF02D6DC00F2EF3E0FF2E41
S1137780F02D68C0F12C66C06894FF24F3F862C041
S11377906894FF24F3F85EC0F12C5CC06894FF2465
S11377A0F3F858C00F2EF3E0FF2EF02D53C00F2E28
S11377B0F5E0FF2EF02D4EC00F2EF3E0FF2EF02D3E
S11377C049C0F12C47C00F2EF3E0FF2EF02D42C02C
S11377D00F2EF3E0FF2EF02D3DC00F2EF3E0FF2E11
S11377E0F02D38C00F2EF3E0FF2EF02D33C00F2EF6
S11377F0F3E0FF2EF02D2EC00F2EF3E0FF2EF02D20
S113780029C00F2EF3E0FF2EF02D24C00F2EF3E03D
S1137810FF2EF02D1FC00F2EF3E0FF2EF02D1AC007
S11378206894FF24F3F816C06894FF24F1F812C09A
S11378300F2EF3E0FF2EF02D0DC06894FF24F1F815
S113784009C00F2EF3E0FF2EF02D04C00F2EF3E03D
S1137850FF2EF02D8F2D29960FB6F894DEBF0FBEA4
S1137860CDBFDF91CF911F910F91FF90EF90DF90EB
S1137870CF90BF90AF909F908F9008952FB7F894BA
S11378809091060680958923809306062FBF08955C
S11378909FB7F894809320069FBF08958FB7F894FC
S11378A0109220068FBF08959FB7F8942091F30596
S11378B0822B8093F3059FBF08959FB7F89420917E
S11378C00506822B809305069FBF08958FB7F89411
S11378D01092F3058FBF08958FB7F89410920506A0
S11378E08FBF08955058BB27AA270E948A3C0C9446
S11378F0243F0E94EB3E38F00E94F23E20F039F41F
S11379009F3F19F426F40C94C13E0EF4E095E7FB76
S11379100C94923EE92F0E94493F58F3BA1762072C
S113792073078407950720F079F4A6F50C94833F38
S11379300EF4E0950B2EBA2FA02D0B01B901900186
S11379400C01CA01A0011124FF27591B99F0593FCA
S113795050F4503E68F11A16F040A22F232F342F12
S11379604427585FF3CF469537952795A795F04060
S11379705395C9F77EF41F16BA0B620B730B840B75
S1137980BAF09150A1F0FF0FBB1F661F771F881F2D
S1137990C2F70EC0BA0F621F731F841F48F4879585
S11379A077956795B795F7959E3F08F0B0CF939577
S11379B0880F08F09927EE0F9795879508950E94F0
S11379C0EB3E60F080E891E009F49EEF0E94F23E05
S11379D028F040E851E071F45EEF0CC00C94C13E15
S11379E00C94833FE92FE0780E94493F40F3092E2D
S11379F0052AB1F3261737074807590738F00E2E22
S1137A0007F8E02569F0E025E0640AC0EF6307F8B1
S1137A10009407FADB01B9019D01DC01CA01AD0143
S1137A20EF930E94893D0E94243F0E94223D5F9172
S1137A30552339F02BED3FE049E450FD49EC0C941B
S1137A40733C0895DF93DD27B92FBF7740E85FE3E8
S1137A501616170648075B0718F4D92F0E948F3FA4
S1137A609F938F937F936F930E94A940E0E2F2E08B
S1137A700E94C43E0E94243F2F913F914F915F91F9
S1137A800E94DD3FDD2351F09058A2EA2AED3FE049
S1137A9049EC5FE3D0785D270E948A3CDF910C9427
S1137AA0243F0E946B3F90F09F3748F4911116F4E5
S1137AB00C94843F60E070E080E89FE3089526F032
S1137AC01B16611D711D811D0C94983E0C94B33ED0
S1137AD00E946E3E08F481E008950E94FB3EE39507
S1137AE00C94353F0E94863D0C94243F0E94F23E44
S1137AF058F00E94EB3E40F029F45F3F29F00C94CB
S1137B00923E51110C94843F0C94C13E0E94493F13
S1137B1068F39923B1F3552391F3951B550BBB27B8
S1137B20AA2762177307840738F09F5F5F4F220FFD
S1137B30331F441FAA1FA9F335D00E2E3AF0E0E8F4
S1137B4032D091505040E695001CCAF72BD0FE2F3E
S1137B5029D0660F771F881FBB1F261737074807D2
S1137B60AB07B0E809F0BB0B802DBF01FF2793588A
S1137B705F4F3AF09E3F510578F00C94923E0C947E
S1137B80843F5F3FE4F3983ED4F3869577956795F9
S1137B90B795F7959F5FC9F7880F911D96958795BF
S1137BA097F90895E1E0660F771F881FBB1F6217DE
S1137BB073078407BA0720F0621B730B840BBA0B9C
S1137BC0EE1F88F7E09508950E94EB3D6894B1118B
S1137BD00C94843F08950E94513F88F09F5798F079
S1137BE0B92F9927B751B0F0E1F0660F771F881FBE
S1137BF0991F1AF0BA95C9F714C0B13091F00E94D8
S1137C00833FB1E008950C94833F672F782F882732
S1137C10B85F39F0B93FCCF3869577956795B395FE
S1137C20D9F73EF490958095709561957F4F8F4F6D
S1137C309F4F0895E89409C097FB3EF49095809572
S1137C40709561957F4F8F4F9F4F9923A9F0F92F1E
S1137C5096E9BB279395F695879577956795B7959C
S1137C60F111F8CFFAF4BB0F11F460FF1BC06F5F82
S1137C707F4F8F4F9F4F16C0882311F096E911C094
S1137C80772321F09EE8872F762F05C0662371F0B5
S1137C9096E8862F70E060E02AF09A95660F771FC9
S1137CA0881FDAF7880F9695879597F908950E94AB
S1137CB06B3F90F09F3748F4911116F00C94843F79
S1137CC060E070E080E89FEB089526F41B16611DC8
S1137CD0711D811D0C94983E0C94B33E990F0008BD
S1137CE0550FAA0BE0E8FEEF16161706E807F9078A
S1137CF0C0F012161306E407F50798F0621B730B25
S1137D00840B950B39F40A2661F0232B242B252BA5
S1137D1021F408950A2609F4A140A6958FEF811D48
S1137D20811D089597F99F6780E870E060E00895E9
S1137D30882371F4772321F09850872B762F07C07E
S1137D40662311F499270DC09051862B70E060E0F2
S1137D502AF09A95660F771F881FDAF7880F969591
S1137D60879597F908959F3F31F0915020F48795B6
S1137D7077956795B795880F911D9695879597F98F
S1137D8008959FEF80EC0895DF93CF931F930F9393
S1137D90FF92EF92DF927B018C01689406C0DA2E89
S1137DA0EF010E94DD3FFE01E894A59125913591F4
S1137DB045915591A6F3EF010E948A3CFE0197017B
S1137DC0A801DA9469F7DF90EF90FF900F911F916B
S1137DD0CF91DF91089500240A9416161706180609
S1137DE00906089500240A941216130614060506BB
S1137DF008950C94C13E0E94513FD8F3E894E0E00A
S1137E00BB279F57F0F02AED3FE049EC06C0EE0F88
S1137E10BB0F661F771F881F28F0B23A62077307EB
S1137E20840728F0B25A620B730B840BE3959A957E
S1137E3072F7803830F49A95BB0F661F771F881F3E
S1137E40D2F790480C94B53E092E0394000C11F41B
S1137E50882352F0BB0F40F4BF2B11F460FF04C021
S1137E606F5F7F4F8F4F9F4F0895EF93E0FF07C0E1
S1137E70A2EA2AED3FE049EC5FEB0E948A3C0E94B3
S1137E80243F0F90039401FC9058EDE4F2E00C942D
S1137E90BF4057FD9058440F551F59F05F3F71F094
S1137EA04795880F97FB991F61F09F3F79F087955D
S1137EB00895121613061406551FF2CF4695F1DFE6
S1137EC008C0161617061806991FF1CF8695710576
S1137ED06105089408950E94513FA0F0BEE7B917C8
S1137EE088F4BB279F3860F41616B11D672F782FCE
S1137EF08827985FF7CF869577956795B11D9395F9
S1137F009639C8F30895E894BB2766277727CB01F1
S1137F1097F908950E946E3E08F48FEF08959B012F
S1137F20AC0160E070E080E89FE30C94723D0E9435
S1137F30513F58F19E5760F19851A0F0E9F0983004
S1137F4020F5092E9927660F771F881F991F0A9419
S1137F50D1F712C0062E672F782F8827985F11F467
S1137F60000C07C0993FB4F3869577956795939570
S1137F70D9F7611D711D811D3EF490958095709512
S1137F8061957F4F8F4F9F4F089568940C94843F61
S1137F900C94833F0E94DD3F0C94243F0E94EB3EEF
S1137FA038F00E94F23E20F0952311F00C94923E9A
S1137FB00C94C13E11240C94843F0E94493F70F3F9
S1137FC0959FC1F3950F50E0551F629FF001729F7A
S1137FD0BB27F00DB11D639FAA27F00DB11DAA1F89
S1137FE0649F6627B00DA11D661F829F2227B00DD6
S1137FF0A11D621F739FB00DA11D621F839FA00D61
S1138000611D221F749F3327A00D611D231F849FB0
S1138010600D211D822F762F6A2F11249F57504007
S11380209AF0F1F088234AF0EE0FFF1FBB1F661F82
S1138030771F881F91505040A9F79E3F510580F04B
S11380400C94923E0C94843F5F3FE4F3983ED4F347
S1138050869577956795B795F795E7959F5FC1F7EF
S1138060FE2B880F911D9695879597F908950E9488
S1138070513FE8F09E37E8F09639B8F49E3848F45A
S1138080672F782F8827985FF9CF8695779567951E
S113809093959539D0F3B62FB1706B0F711D811D77
S11380A020F487957795679593950C94983E0C9456
S11380B0B33E0C94843F9F930E94FB3E0F9007FCB9
S11380C0EE5F0C94353F19F416F40C94C13E0C94F5
S11380D0B33E0E94513FB8F39923C9F3B6F39F57B7
S11380E0550B87FF0E94B8400024A0E640EA9001A7
S11380F080585695979528F4805C660F771F881FE3
S113810020F026173707480730F4621B730B840BE3
S1138110202931294A2BA695179407942025312527
S11381204A2758F7660F771F881F20F0261737074E
S1138130480730F4620B730B840B200D311D411D75
S1138140A09581F7B901842F9158880F969587954A
S113815008959B01AC010C94CA3F0E946B3F30F020
S11381609F3710F40C94843F0C94983E0C94B33EC7
S113817091505040660F771F881FD2F708959F9340
S11381808F937F936F93FF93EF939B01AC010E94B6
S1138190CA3FEF91FF910E94C43E2F913F914F91AE
S11381A05F910C94CA3FA1E21A2EAA1BBB1BFD01CE
S11381B00DC0AA1FBB1FEE1FFF1FA217B307E407C2
S11381C0F50720F0A21BB30BE40BF50B661F771F1A
S11381D0881F991F1A9469F76095709580959095FA
S11381E09B01AC01BD01CF010895EE0FFF1F059067
S11381F0F491E02D0994A29FB001B39FC001A39F05
S1138200700D811D1124911DB29F700D811D1124CB
S1138210911D0895FB01DC0104C08D91019080192A
S113822021F441505040C8F7881B990B0895F894E5
S1058230FFCF7A
S9030000FC
